:100000000C942A000C9434000C9434000C943400AA
:100010000C9434000C9434000C9434000C94340090
:100020000C9434000C9434000C9434000C94340080
:100030000C9434000C9434000C9434000C94340070
:100040000C9434000C9434000C9434000C94340060
:100050000C94340011241FBECFE5D4E0DEBFCDBF29
:100060000E94CB030C9418040C940000CF93DF93F0
:1000700000D01F92CDB7DEB789836A834B83898115
:10008000882F90E08234910509F43EC083349105B5
:1000900024F48134910551F0C1C08334910509F4F1
:1000A00061C08434910509F48BC0B8C08B8188236A
:1000B000B1F48AE390E02AE330E0F9012081622F75
:1000C0002A81422F50E021E030E002C0220F331F8E
:1000D0004A95E2F720952623FC0120839FC08AE3FE
:1000E00090E02AE330E0F9012081622F2A81422F3B
:1000F00050E021E030E002C0220F331F4A95E2F7C2
:10010000262BFC0120838AC08B818823B1F487E3EE
:1001100090E027E330E0F9012081622F2A81422F0D
:1001200050E021E030E002C0220F331F4A95E2F791
:1001300020952623FC01208371C087E390E027E30C
:1001400030E0F9012081622F2A81422F50E021E026
:1001500030E002C0220F331F4A95E2F7262BFC0144
:1001600020835CC08B818823B1F484E390E024E396
:1001700030E0F9012081622F2A81422F50E021E0F6
:1001800030E002C0220F331F4A95E2F72095262364
:10019000FC01208343C084E390E024E330E0F901D4
:1001A0002081622F2A81422F50E021E030E002C0FE
:1001B000220F331F4A95E2F7262BFC0120832EC025
:1001C0008B818823B1F481E390E021E330E0F901F1
:1001D0002081622F2A81422F50E021E030E002C0CE
:1001E000220F331F4A95E2F720952623FC01208336
:1001F00014C081E390E021E330E0F9012081622F17
:100200002A81422F50E021E030E002C0220F331F4C
:100210004A95E2F7262BFC012083000000000F9096
:100220000F900F90DF91CF910895CF93DF9300D07F
:100230001F92CDB7DEB789836A834B838981882F6C
:1002400090E08234910509F43EC08334910524F492
:100250008134910551F0C1C08334910509F461C026
:100260008434910509F48BC0B8C08B818823B1F424
:100270008BE390E02BE330E0F9012081622F2A81AB
:10028000422F50E021E030E002C0220F331F4A9598
:10029000E2F720952623FC0120839FC08BE390E0AA
:1002A0002BE330E0F9012081622F2A81422F50E0B8
:1002B00021E030E002C0220F331F4A95E2F7262BDF
:1002C000FC0120838AC08B818823B1F488E390E00D
:1002D00028E330E0F9012081622F2A81422F50E08B
:1002E00021E030E002C0220F331F4A95E2F720954B
:1002F0002623FC01208371C088E390E028E330E0EE
:10030000F9012081622F2A81422F50E021E030E064
:1003100002C0220F331F4A95E2F7262BFC012083EF
:100320005CC08B818823B1F485E390E025E330E065
:10033000F9012081622F2A81422F50E021E030E034
:1003400002C0220F331F4A95E2F720952623FC01B5
:10035000208343C085E390E025E330E0F90120816C
:10036000622F2A81422F50E021E030E002C0220FAC
:10037000331F4A95E2F7262BFC0120832EC08B8188
:100380008823B1F482E390E022E330E0F901208198
:10039000622F2A81422F50E021E030E002C0220F7C
:1003A000331F4A95E2F720952623FC01208314C0D1
:1003B00082E390E022E330E0F9012081622F2A817C
:1003C000422F50E021E030E002C0220F331F4A9557
:1003D000E2F7262BFC012083000000000F900F9015
:1003E0000F90DF91CF910895CF93DF9300D0CDB7D9
:1003F000DEB789836A838981882F90E082349105F2
:10040000F1F08334910524F48134910541F047C023
:100410008334910521F18434910589F140C089E349
:1004200090E0FC018081882F90E02A81222F30E02B
:1004300002C0959587952A95E2F7817031C086E3D1
:1004400090E0FC018081882F90E02A81222F30E00B
:1004500002C0959587952A95E2F7817021C083E3C4
:1004600090E0FC018081882F90E02A81222F30E0EB
:1004700002C0959587952A95E2F7817011C080E3B7
:1004800090E0FC018081882F90E02A81222F30E0CB
:1004900002C0959587952A95E2F7817001C080E0AA
:1004A0000F900F90DF91CF910895CF93DF9300D0FD
:1004B000CDB7DEB789836A838981882F90E0823443
:1004C0009105A1F08334910524F48134910541F024
:1004D0001FC08334910581F08434910599F018C0D0
:1004E0008AE390E02A81FC01208312C087E390E038
:1004F0002A81FC0120830CC084E390E02A81FC0166
:10050000208306C081E390E02A81FC012083000063
:1005100000000F900F90DF91CF910895CF93DF935C
:1005200000D0CDB7DEB789836A838981882F90E0B8
:1005300082349105A1F08334910524F4813491052E
:1005400041F01FC08334910581F08434910599F006
:1005500018C08BE390E02A81FC01208312C088E35D
:1005600090E02A81FC0120830CC085E390E02A8181
:10057000FC01208306C082E390E02A81FC012083F5
:10058000000000000F900F90DF91CF910895CF935E
:10059000DF93CDB7DEB740E060E083E40E94360031
:1005A00040E061E083E40E94360040E062E083E4E2
:1005B0000E94360040E063E083E40E94360040E0A1
:1005C00064E083E40E94360040E060E083E40E943F
:1005D000150140E061E083E40E94150140E062E023
:1005E00083E40E94150140E063E083E40E9415016A
:1005F00040E064E083E40E9415010000DF91CF91A8
:100600000895CF93DF9300D000D0CDB7DEB78983B4
:100610006A835C834B836A8189810E94F401882309
:1006200029F48B819C81FC01108205C08B819C8107
:1006300021E0FC01208300000F900F900F900F909D
:10064000DF91CF910895CF93DF93CDB7DEB741E02F
:1006500060E084E40E94360041E061E084E40E94AE
:10066000360041E062E084E40E94360041E063E04D
:1006700084E40E9436000000DF91CF910895CF936B
:10068000DF93CDB7DEB741E060E084E40E9415015E
:1006900040E061E084E40E94150141E062E084E40E
:1006A0000E94150140E063E084E40E94150100000F
:1006B000DF91CF910895CF93DF93CDB7DEB740E0C0
:1006C00060E084E40E94150141E061E084E40E945E
:1006D000150140E062E084E40E94150141E063E01E
:1006E00084E40E9415010000DF91CF910895CF931B
:1006F000DF93CDB7DEB740E060E084E40E941501EF
:1007000040E061E084E40E94150140E062E084E49E
:100710000E94150140E063E084E40E94150100009E
:10072000DF91CF910895CF93DF93CDB7DEB741E04E
:1007300060E084E40E94150140E061E084E40E94EE
:10074000150140E062E084E40E94150140E063E0AE
:1007500084E40E9415010000DF91CF910895CF93AA
:10076000DF93CDB7DEB740E060E084E40E9415017E
:1007700040E061E084E40E94150140E062E084E42E
:100780000E94150141E063E084E40E94150100002D
:10079000DF91CF910895CF93DF9300D000D01F92C7
:1007A000CDB7DEB719821A821B821C821D820E947D
:1007B000C7020E942303CE010196AC0160E083E4EE
:1007C0000E9401038981813011F40E943F03CE0110
:1007D0000296AC0161E083E40E9401038A818130CA
:1007E00011F40E945B03CE010396AC0162E083E446
:1007F0000E9401038B81813011F40E949303CE018A
:100800000496AC0163E083E40E9401038C81813093
:1008100011F40E94AF03CE010596AC0164E083E4BD
:100820000E9401038D81813031F60E947703C3CF8E
:04083000F894FFCF6A
:00000001FF
