:100000000C942A000C943F000C943F000C943F0089
:100010000C943F000C943F000C943F000C943F0064
:100020000C943F000C943F000C943F000C943F0054
:100030000C943F000C943F000C943F000C943F0044
:100040000C943F000C943F000C943F000C943F0034
:100050000C943F0011241FBECFE5D4E0DEBFCDBF1E
:1000600010E0A0E6B0E0EEE1F6E002C005900D92EF
:10007000AA36B107D9F70E94C8010C940D030C945D
:100080000000823471F1F0F0833479F0843409F0A7
:1000900043C021B381E090E001C0880F6A95EAF780
:1000A0004423A9F1822B81BB089524B381E090E021
:1000B00001C0880F6A95EAF7411126C08095822316
:1000C00084BB0895813439F52AB381E090E001C002
:1000D000880F6A95EAF7411114C0809582238ABB84
:1000E000089527B381E090E001C0880F6A95EAF790
:1000F000411104C08095822387BB0895822B87BB62
:100100000895822B8ABB0895822B84BB0895809525
:10011000822381BB089508950895823471F1F0F02F
:10012000833479F0843409F043C022B381E090E055
:1001300001C0880F6A95EAF74423A9F1822B82BB9C
:10014000089525B381E090E001C0880F6A95EAF731
:10015000411126C08095822385BB0895813439F5ED
:100160002BB381E090E001C0880F6A95EAF7411156
:1001700014C0809582238BBB089528B381E090E062
:1001800001C0880F6A95EAF7411104C08095822367
:1001900088BB0895822B88BB0895822B8BBB089562
:1001A000822B85BB08958095822382BB0895089594
:1001B0000895823421F1B0F0833459F08434E9F4A5
:1001C00080B390E002C0959587956A95E2F78170BB
:1001D000089583B390E002C0959587956A95E2F7FC
:1001E00081700895813449F489B390E002C09595F7
:1001F00087956A95E2F78170089580E0089586B347
:1002000090E002C0959587956A95E2F78170089510
:10021000823469F040F0833421F0843451F461BBBE
:10022000089564BB0895813429F46ABB089567BBBF
:10023000089508950895823469F040F0833421F0E0
:10024000843451F462BB089565BB0895813429F468
:100250006BBB089568BB08950895089541E060E080
:1002600081E40E94410041E061E081E40E9441009C
:1002700041E062E081E40E94410040E060E081E40E
:100280000E948D0040E061E081E40E948D0040E02A
:1002900062E081E40C948D0041E00C948D0040E01C
:1002A0000C948D0083E083BF0895BC0180E090E052
:1002B0000E947F022FE632E143E851E40E94DE0112
:1002C0000E9450026115710571F020E030E012BE0D
:1002D00008B600FEFDCF88B7816088BF2F5F3F4F13
:1002E00062177307A1F70895FF920F931F93CF939F
:1002F000DF93C82FD62FF42E642F8D2F0E944C0130
:100300000C2F10E001151105F1F0CA500A3011054B
:100310001CF16C2F83E40E94BD0161E084E40E9423
:10032000BD012DE330E012BE08B600FEFDCF88B758
:10033000816088BF21503109B1F701501109C150C6
:100340000115110519F76F2D8D2FDF91CF911F9199
:100350000F91FF900C944F01602F83E40E94BD0128
:1003600060E084E40E94BD01DCCF6FEF83E40E9473
:1003700008016FE784E40C940801E62FF0E0E05AEE
:10038000FF4F60810E941B0182E090E00C945501B8
:100390000E942E010E9452010E94B50140E061E4DA
:1003A0008FE00E94740141E061E485E00E947401E5
:1003B00042E061E48AE00E947401F0CF0E94F20101
:1003C0000C94D3020E94CC0258F00E94C50240F067
:1003D00029F45F3F29F00C94BC0251110C940703DF
:1003E0000C94C2020E94E40268F39923B1F35523EE
:1003F00091F3951B550BBB27AA2762177307840738
:1004000038F09F5F5F4F220F331F441FAA1FA9F3CD
:1004100035D00E2E3AF0E0E832D091505040E695BB
:10042000001CCAF72BD0FE2F29D0660F771F881F1C
:10043000BB1F261737074807AB07B0E809F0BB0B0F
:10044000802DBF01FF2793585F4F3AF09E3F510523
:1004500078F00C94BC020C9407035F3FE4F3983EE1
:10046000D4F3869577956795B795F7959F5FC9F70C
:10047000880F911D9695879597F90895E1E0660F8D
:10048000771F881FBB1F621773078407BA0720F006
:10049000621B730B840BBA0BEE1F88F7E09508956F
:1004A0000E94EC0288F09F5798F0B92F9927B75116
:1004B000B0F0E1F0660F771F881F991F1AF0BA9508
:1004C000C9F714C0B13091F00E940603B1E008955D
:1004D0000C940603672F782F8827B85F39F0B93F4F
:1004E000CCF3869577956795B395D9F73EF49095BB
:1004F0008095709561957F4F8F4F9F4F0895E89439
:1005000009C097FB3EF490958095709561957F4F5B
:100510008F4F9F4F9923A9F0F92F96E9BB27939509
:10052000F695879577956795B795F111F8CFFAF419
:10053000BB0F11F460FF1BC06F5F7F4F8F4F9F4F4A
:1005400016C0882311F096E911C0772321F09EE8A8
:10055000872F762F05C0662371F096E8862F70E00E
:1005600060E02AF09A95660F771F881FDAF7880FE8
:100570009695879597F9089597F99F6780E870E0B9
:1005800060E008959FEF80EC089500240A94161609
:10059000170618060906089500240A941216130671
:1005A000140605060895092E0394000C11F48823FF
:1005B00052F0BB0F40F4BF2B11F460FF04C06F5F1B
:1005C0007F4F8F4F9F4F089557FD9058440F551FF1
:1005D00059F05F3F71F04795880F97FB991F61F0C5
:1005E0009F3F79F087950895121613061406551F3C
:1005F000F2CF4695F1DF08C0161617061806991FA8
:10060000F1CF86957105610508940895E894BB279C
:0E06100066277727CB0197F90895F894FFCF5E
:0A061E003F065B4F666D7D077F6F9E
:00000001FF
