:100000000C942A000C9447000C9447000C94470071
:100010000C9447000C9447000C9447000C94470044
:100020000C9447000C9447000C9447000C94470034
:100030000C9447000C9447000C9447000C94470024
:100040000C9447000C9447000C9447000C94470014
:100050000C94470011241FBECFE5D4E0DEBFCDBF16
:1000600010E0A0E6B0E0E2EBF8E202C005900D92ED
:10007000AC39B107D9F720E0ACE9B0E001C01D927E
:10008000AD39B207E1F70E94E40F0C9457140C94B9
:100090000000CF93DF9300D01F92CDB7DEB78983E6
:1000A0006A834B838981882F90E08234910509F41B
:1000B0003EC08334910524F48134910551F0C1C0D0
:1000C0008334910509F461C08434910509F48BC02F
:1000D000B8C08B818823B1F48AE390E02AE330E052
:1000E000F9012081622F2A81422F50E021E030E087
:1000F00002C0220F331F4A95E2F720952623FC0108
:1001000020839FC08AE390E02AE330E0F901208158
:10011000622F2A81422F50E021E030E002C0220FFE
:10012000331F4A95E2F7262BFC0120838AC08B817E
:100130008823B1F487E390E027E330E0F9012081E0
:10014000622F2A81422F50E021E030E002C0220FCE
:10015000331F4A95E2F720952623FC01208371C0C6
:1001600087E390E027E330E0F9012081622F2A81C4
:10017000422F50E021E030E002C0220F331F4A95A9
:10018000E2F7262BFC0120835CC08B818823B1F42D
:1001900084E390E024E330E0F9012081622F2A819A
:1001A000422F50E021E030E002C0220F331F4A9579
:1001B000E2F720952623FC01208343C084E390E0EE
:1001C00024E330E0F9012081622F2A81422F50E0A0
:1001D00021E030E002C0220F331F4A95E2F7262BC0
:1001E000FC0120832EC08B818823B1F481E390E051
:1001F00021E330E0F9012081622F2A81422F50E073
:1002000021E030E002C0220F331F4A95E2F720952B
:100210002623FC01208314C081E390E021E330E039
:10022000F9012081622F2A81422F50E021E030E045
:1002300002C0220F331F4A95E2F7262BFC012083D0
:10024000000000000F900F900F90DF91CF91089564
:10025000CF93DF9300D01F92CDB7DEB789836A8337
:100260004B838981882F90E08234910509F43EC048
:100270008334910524F48134910551F0C1C0833455
:10028000910509F461C08434910509F48BC0B8C0AC
:100290008B818823B1F48BE390E02BE330E0F9010C
:1002A0002081622F2A81422F50E021E030E002C0FD
:1002B000220F331F4A95E2F720952623FC01208365
:1002C0009FC08BE390E02BE330E0F9012081622FA7
:1002D0002A81422F50E021E030E002C0220F331F7C
:1002E0004A95E2F7262BFC0120838AC08B81882364
:1002F000B1F488E390E028E330E0F9012081622F37
:100300002A81422F50E021E030E002C0220F331F4B
:100310004A95E2F720952623FC01208371C088E3EB
:1003200090E028E330E0F9012081622F2A81422FFA
:1003300050E021E030E002C0220F331F4A95E2F77F
:10034000262BFC0120835CC08B818823B1F485E3DC
:1003500090E025E330E0F9012081622F2A81422FCD
:1003600050E021E030E002C0220F331F4A95E2F74F
:1003700020952623FC01208343C085E390E025E3FC
:1003800030E0F9012081622F2A81422F50E021E0E4
:1003900030E002C0220F331F4A95E2F7262BFC0102
:1003A00020832EC08B818823B1F482E390E022E386
:1003B00030E0F9012081622F2A81422F50E021E0B4
:1003C00030E002C0220F331F4A95E2F72095262322
:1003D000FC01208314C082E390E022E330E0F901C5
:1003E0002081622F2A81422F50E021E030E002C0BC
:1003F000220F331F4A95E2F7262BFC0120830000D1
:1004000000000F900F900F90DF91CF910895CF9340
:10041000DF9300D0CDB7DEB789836A838981882FC7
:1004200090E082349105F1F08334910524F4813415
:10043000910541F047C08334910521F18434910541
:1004400089F140C089E390E0FC018081882F90E031
:100450002A81222F30E002C0959587952A95E2F7F0
:10046000817031C086E390E0FC018081882F90E0AC
:100470002A81222F30E002C0959587952A95E2F7D0
:10048000817021C083E390E0FC018081882F90E09F
:100490002A81222F30E002C0959587952A95E2F7B0
:1004A000817011C080E390E0FC018081882F90E092
:1004B0002A81222F30E002C0959587952A95E2F790
:1004C000817001C080E00F900F90DF91CF9108956F
:1004D000CF93DF9300D0CDB7DEB789836A8389815C
:1004E000882F90E082349105A1F08334910524F4A3
:1004F0008134910541F01FC08334910581F084342B
:10050000910599F018C08AE390E02A81FC012083CC
:1005100012C087E390E02A81FC0120830CC084E3B1
:1005200090E02A81FC01208306C081E390E02A81CB
:10053000FC012083000000000F900F90DF91CF910D
:100540000895CF93DF9300D0CDB7DEB789836A8358
:100550008981882F90E082349105A1F08334910540
:1005600024F48134910541F01FC08334910581F05A
:100570008434910599F018C08BE390E02A81FC0146
:10058000208312C088E390E02A81FC0120830CC004
:1005900085E390E02A81FC01208306C082E390E09D
:1005A0002A81FC012083000000000F900F90DF9152
:1005B000CF9108950F931F93CF93DF93CDB7DEB7FD
:1005C000CF56D1090FB6F894DEBF0FBECDBF9E0146
:1005D00021593F4FF901808385E390E025E330E026
:1005E000F9012081422F4F709E0121593F4FF9019F
:1005F0002081207F242BFC01208385E390E025E3EC
:1006000030E0F90120812E7FFC01208385E390E01A
:1006100025E330E0F90120812260FC01208380E0A5
:1006200090E0A0E8BFE389839A83AB83BC838E010B
:100630000D5A1F4F2BEA3AEA4AEA5EE369817A8152
:100640008B819C810E94AA13DC01CB01F80180837D
:100650009183A283B3838E01095A1F4F20E030E0BB
:1006600040E85EE369817A818B819C810E94AA13B4
:10067000DC01CB01F80180839183A283B383CE0197
:100680008D5A9F4F20E030E040E85FE3FC0160813D
:100690007181828193810E948A1288233CF4CE0169
:1006A000855A9F4F21E0FC0120832CC1CE01895A3D
:1006B0009F4F20E03FEF4FE757E4FC0160817181DD
:1006C000828193810E94A51318160CF0CDC020E002
:1006D00030E04AE754E469817A818B819C810E94F1
:1006E0008F12DC01CB019E01245A3F4FF901808318
:1006F0009183A283B3838E01005A1F4FCE01845A87
:100700009F4F20E030E04AE753E4FC0160817181B3
:10071000828193810E94AA13DC01CB01F8018083BE
:100720009183A283B383CE01805A9F4F20E030E0B3
:1007300040E85FE3FC0160817181828193810E94C6
:100740008A1288234CF4CE018C599F4F21E030E06F
:10075000FC01318320836DC0CE01805A9F4F20E081
:100760003FEF4FE757E4FC01608171818281938103
:100770000E94A51318160CF04AC0CE01845A9F4F50
:1007800020E030E040E251E4FC016081718182812F
:1007900093810E94AA13DC01CB018E010C591F4FDB
:1007A000BC01CD010E940113DC01CB01F801918352
:1007B000808324C0CE018A599F4F29E130E0FC019B
:1007C00031832083CE018A599F4FFC018081918122
:1007D0000197F1F79E012A593F4FF90191838083D8
:1007E000CE018C599F4F9E012C593F4FF90120811A
:1007F000318121503109FC0131832083CE018C5994
:100800009F4FFC0180819181892BA1F67BC08E01D5
:100810000C591F4FCE01805A9F4FFC01608171819E
:10082000828193810E940113DC01CB01F801918345
:100830008083CE0188599F4F9E012C593F4FF9016B
:1008400020813181FC0131832083CE0188599F4F63
:10085000FC01808191810197F1F79E0128593F4F5A
:10086000F901918380834EC0CE018D5A9F4F20E0C5
:1008700030E04FE753E4FC01608171818281938114
:100880000E94A51318166CF58E0106591F4FCE0154
:10089000895A9F4FFC0160817181828193810E94FE
:1008A0000113DC01CB01F80191838083CE018459CF
:1008B0009F4F9E0126593F4FF90120813181FC0154
:1008C00031832083CE0184599F4FFC018081918127
:1008D0000197F1F79E0124593F4FF90191838083DD
:1008E00028C08E01055A1F4FCE018D5A9F4FFC0123
:1008F00060817181828193810E940113DC01CB01AF
:10090000F8018083CE0182599F4F9E01255A3F4FA7
:10091000F9012081FC012083CE0182599F4FFC0107
:100920008081282F2A95F1F7CE0182599F4FFC0133
:10093000208385E390E025E330E0F90120812D7FDD
:10094000FC01208380E090E0A8E4B3E48D839E83E3
:10095000AF83B8872BEA3AEA4AEA5EE36D817E818B
:100960008F8198850E94AA13DC01CB018FAB98AFD1
:10097000A9AFBAAF20E030E040E85EE36D817E8150
:100980008F8198850E94AA13DC01CB018BAF9CAFAD
:10099000ADAFBEAF20E030E040E85FE36FA978ADD7
:1009A00089AD9AAD0E948A1288231CF481E08FAF32
:1009B00018C120E03FEF4FE757E46BAD7CAD8DAD44
:1009C0009EAD0E94A51318160CF0CDC020E030E0BB
:1009D0004AE754E46D817E818F8198850E948F1251
:1009E000DC01CB019E01205C3F4FF90180839183A4
:1009F000A283B3838E010C5B1F4FCE01805C9F4F9F
:100A000020E030E04AE753E4FC016081718182819B
:100A100093810E94AA13DC01CB01F80180839183AA
:100A2000A283B383CE018C5B9F4F20E030E040E88F
:100A30005FE3FC0160817181828193810E948A124F
:100A400088234CF4CE01885B9F4F21E030E0FC010D
:100A5000318320836DC0CE018C5B9F4F20E03FEF40
:100A60004FE757E4FC0160817181828193810E948C
:100A7000A51318160CF04AC0CE01805C9F4F20E0F1
:100A800030E040E251E4FC01608171818281938118
:100A90000E94AA13DC01CB018E01085B1F4FBC0131
:100AA000CD010E940113DC01CB01F8019183808309
:100AB00024C0CE01865B9F4F29E130E0FC013183E9
:100AC0002083CE01865B9F4FFC018081918101973D
:100AD000F1F79E01265B3F4FF90191838083CE01A0
:100AE000885B9F4F9E01285B3F4FF9012081318138
:100AF00021503109FC0131832083CE01885B9F4F57
:100B0000FC0180819181892BA1F66BC08E01085B6D
:100B10001F4FCE018C5B9F4FFC01608171818281F0
:100B200093810E940113DC01CB01F8019183808342
:100B3000CE01845B9F4F9E01285B3F4FF9012081CE
:100B40003181FC0131832083CE01845B9F4FFC0106
:100B5000808191810197F1F79E01245B3F4FF9015C
:100B6000918380833EC020E030E04FE753E46FA9DB
:100B700078AD89AD9AAD0E94A51318164CF58E017B
:100B8000025B1F4F6BAD7CAD8DAD9EAD0E9401131E
:100B9000DC01CB01F80191838083CE01805B9F4F04
:100BA0009E01225B3F4FF90120813181FC0131839D
:100BB0002083CE01805B9F4FFC0180819181019752
:100BC000F1F79E01205B3F4FF901918380831CC0A8
:100BD0006FA978AD89AD9AAD0E940113DC01CB01FC
:100BE0008FAFCE018E5A9F4F2FADFC012083CE01D7
:100BF0008E5A9F4FFC018081282F2A95F1F7CE0154
:100C00008E5A9F4FFC01208385E390E025E330E07E
:100C1000F9012081422F4F709E0121593F4FF90168
:100C20002081222F30E022953295307F3227207F9D
:100C30003227242BFC01208385E390E025E330E07C
:100C4000F90120812260FC01208380E090E0A0E88F
:100C5000BFE389879A87AB87BC872BEA3AEA4AEADF
:100C60005EE369857A858B859C850E94AA13DC01E9
:100C7000CB018B8F9C8FAD8FBE8F20E030E040E8A2
:100C80005EE369857A858B859C850E94AA13DC01C9
:100C9000CB018F8F98A3A9A3BAA320E030E040E84E
:100CA0005FE36B8D7C8D8D8D9E8D0E948A128823D3
:100CB0001CF481E08BA3B2C020E03FEF4FE757E484
:100CC0006F8D78A189A19AA10E94A51318160CF026
:100CD0007BC020E030E04AE754E469857A858B8563
:100CE0009C850E948F12DC01CB018CA39DA3AEA337
:100CF000BFA320E030E04AE753E46CA17DA18EA1C0
:100D00009FA10E94AA13DC01CB0188A799A7AAA7DB
:100D1000BBA720E030E040E85FE368A579A58AA59D
:100D20009BA50E948A1288232CF481E090E09DA765
:100D30008CA73FC020E03FEF4FE757E468A579A5B7
:100D40008AA59BA50E94A51318164CF520E030E05B
:100D500040E251E46CA17DA18EA19FA10E94AA1343
:100D6000DC01CB01BC01CD010E940113DC01CB01F0
:100D70009DA78CA70FC089E190E09FA78EA78EA5A5
:100D80009FA50197F1F79FA78EA78CA59DA5019719
:100D90009DA78CA78CA59DA5892B69F73FC068A549
:100DA00079A58AA59BA50E940113DC01CB019DA713
:100DB0008CA78CA59DA599AB88AB88A999A901970B
:100DC000F1F799AB88AB2AC020E030E04FE753E45D
:100DD0006B8D7C8D8D8D9E8D0E94A5131816ACF4A5
:100DE0006F8D78A189A19AA10E940113DC01CB012A
:100DF0009BAB8AAB8AA99BA99DAB8CAB8CA99DA907
:100E00000197F1F79DAB8CAB0FC06B8D7C8D8D8DF9
:100E10009E8D0E940113DC01CB018BA38BA18EABB5
:100E20008EA98A95F1F78EAB85E390E025E330E05B
:100E3000F90120812D7FFC01208380E090E0A0E07B
:100E4000B0E48D879E87AF87B88B20E030E04AE71B
:100E500053E46D857E858F8598890E94AA13DC01F5
:100E6000CB01898B9A8BAB8BBC8B20E030E040E8C8
:100E70005FE369897A898B899C890E948A12882319
:100E80002CF481E090E09E8B8D8B3FC020E03FEF03
:100E90004FE757E469897A898B899C890E94A51359
:100EA00018164CF520E030E040E251E46D857E8577
:100EB0008F8598890E94AA13DC01CB01BC01CD016A
:100EC0000E940113DC01CB019E8B8D8B0FC089E149
:100ED00090E0988F8F8B8F89988D0197F1F7988F7D
:100EE0008F8B8D899E8901979E8B8D8B8D899E8995
:100EF000892B69F714C069897A898B899C890E943A
:100F00000113DC01CB019E8B8D8B8D899E899A8F7D
:100F1000898F898D9A8D0197F1F79A8F898F0000BB
:100F2000C159DF4F0FB6F894DEBF0FBECDBFDF91C2
:100F3000CF911F910F910895CF93DF93CDB7DEB777
:100F40002E970FB6F894DEBF0FBECDBF84E390E0BE
:100F50002FEFFC01208380E090E0A0EAB1E48983D8
:100F60009A83AB83BC8320E030E04AE753E4698195
:100F70007A818B819C810E94AA13DC01CB018D8335
:100F80009E83AF83B88720E030E040E85FE36D8167
:100F90007E818F8198850E948A1288232CF481E0BB
:100FA00090E09A8789873FC020E03FEF4FE757E402
:100FB0006D817E818F8198850E94A51318164CF54E
:100FC00020E030E040E251E469817A818B819C81AC
:100FD0000E94AA13DC01CB01BC01CD010E940113C8
:100FE000DC01CB019A8789870FC089E190E09C875B
:100FF0008B878B859C850197F1F79C878B878985EB
:101000009A8501979A87898789859A85892B69F7B7
:1010100014C06D817E818F8198850E940113DC014F
:10102000CB019A87898789859A859E878D878D854B
:101030009E850197F1F79E878D8782E00E94DA02F4
:1010400088E20E94DA028CE00E94DA0286E00E94C6
:10105000DA0281E00E94DA0200002E960FB6F894C0
:10106000DEBF0FBECDBFDF91CF910895CF93DF9349
:10107000CDB7DEB76C970FB6F894DEBF0FBECDBF0D
:1010800081E00E94DA0280E090E0A0EAB0E4898387
:101090009A83AB83BC8320E030E04AE753E4698164
:1010A0007A818B819C810E94AA13DC01CB018B8BFE
:1010B0009C8BAD8BBE8B20E030E040E85FE36B891A
:1010C0007C898D899E890E948A1288232CF481E074
:1010D00090E0988F8F8B3FC020E03FEF4FE757E4C1
:1010E0006B897C898D899E890E94A51318164CF501
:1010F00020E030E040E251E469817A818B819C817B
:101100000E94AA13DC01CB01BC01CD010E94011396
:10111000DC01CB01988F8F8B0FC089E190E09A8F13
:10112000898F898D9A8D0197F1F79A8F898F8F8991
:10113000988D0197988F8F8B8F89988D892B69F760
:1011400014C06B897C898D899E890E940113DC0102
:10115000CB01988F8F8B8F89988D9C8F8B8F8B8DE8
:101160009C8D0197F1F79C8F8B8F80E80E94DA02AB
:1011700080E090E0A0E8BFE38D839E83AF83B887D3
:1011800020E030E04AE753E46D817E818F819885CD
:101190000E94AA13DC01CB0189879A87AB87BC87A1
:1011A00020E030E040E85FE369857A858B859C85A7
:1011B0000E948A1288232CF481E090E09E878D871C
:1011C0003FC020E03FEF4FE757E469857A858B8584
:1011D0009C850E94A51318164CF520E030E040E2F3
:1011E00051E46D817E818F8198850E94AA13DC0174
:1011F000CB01BC01CD010E940113DC01CB019E8714
:101200008D870FC089E190E0988B8F878F859889B3
:101210000197F1F7988B8F878D859E8501979E8723
:101220008D878D859E85892B69F714C069857A85A0
:101230008B859C850E940113DC01CB019E878D87E5
:101240008D859E859A8B898B89899A890197F1F77B
:101250009A8B898B00006C960FB6F894DEBF0FBE98
:10126000CDBFDF91CF9108950F931F93CF93DF935D
:10127000CDB7DEB7CF54D1090FB6F894DEBF0FBE9D
:10128000CDBF9E01215B3F4FF901808385E390E054
:1012900025E330E0F9012081422F4F709E01215B50
:1012A0003F4FF9012081207F242BFC01208385E31F
:1012B00090E025E330E0F90120812160FC012083EA
:1012C00085E390E025E330E0F90120812260FC0114
:1012D000208380E090E0A0E8BFE389839A83AB831A
:1012E000BC832BEA3AEA4AEA5EE369817A818B8120
:1012F0009C810E94AA13DC01CB018BAB9CABADABF4
:10130000BEAB20E030E040E85EE369817A818B810A
:101310009C810E94AA13DC01CB018FAB98AFA9AFCF
:10132000BAAF20E030E040E85FE36BA97CA98DA96B
:101330009EA90E948A1288231CF481E08BAF0CC105
:1013400020E03FEF4FE757E46FA978AD89AD9AAD44
:101350000E94A51318160CF0C1C020E030E04AE747
:1013600054E469817A818B819C810E948F12DC0117
:10137000CB018CAF9DAFAEAFBFAF8E01005C1F4FF6
:1013800020E030E04AE753E46CAD7DAD8EAD9FAD1B
:101390000E94AA13DC01CB01F80180839183A28310
:1013A000B383CE01805C9F4F20E030E040E85FE3F4
:1013B000FC0160817181828193810E948A1288235D
:1013C0004CF4CE018C5B9F4F21E030E0FC01318377
:1013D000208369C0CE01805C9F4F20E03FEF4FE744
:1013E00057E4FC0160817181828193810E94A51381
:1013F00018160CF046C020E030E040E251E46CAD3D
:101400007DAD8EAD9FAD0E94AA13DC01CB018E0194
:101410000C5B1F4FBC01CD010E940113DC01CB010D
:10142000F8019183808324C0CE018A5B9F4F29E11C
:1014300030E0FC0131832083CE018A5B9F4FFC01A9
:10144000808191810197F1F79E012A5B3F4FF9015D
:1014500091838083CE018C5B9F4F9E012C5B3F4F1D
:10146000F9012081318121503109FC013183208330
:10147000CE018C5B9F4FFC0180819181892BA1F66D
:101480006BC08E010C5B1F4FCE01805C9F4FFC0137
:1014900060817181828193810E940113DC01CB0103
:1014A000F80191838083CE01885B9F4F9E012C5B66
:1014B0003F4FF90120813181FC0131832083CE012E
:1014C000885B9F4FFC01808191810197F1F79E011C
:1014D000285B3F4FF901918380833EC020E030E0DC
:1014E0004FE753E46BA97CA98DA99EA90E94A5137F
:1014F00018164CF58E01065B1F4F6FA978AD89ADAC
:101500009AAD0E940113DC01CB01F8019183808325
:10151000CE01845B9F4F9E01265B3F4FF9012081E6
:101520003181FC0131832083CE01845B9F4FFC011C
:10153000808191810197F1F79E01245B3F4FF90172
:10154000918380831CC06BA97CA98DA99EA90E9450
:101550000113DC01CB018BAFCE01825B9F4F2BAD22
:10156000FC012083CE01825B9F4FFC018081282FEC
:101570002A95F1F7CE01825B9F4FFC01208385E322
:1015800090E025E330E0F90120812D7FFC012083EC
:1015900085E390E025E330E0F9012081422F4F7090
:1015A0009E01215B3F4FF9012081222F30E02295DF
:1015B0003295307F3227207F3227242BFC01208375
:1015C00085E390E025E330E0F90120812260FC0111
:1015D000208380E090E0A0E8BFE38D839E83AF830B
:1015E000B8872BEA3AEA4AEA5EE36D817E818F8111
:1015F00098850E94AA13DC01CB018F8B988FA98F4D
:10160000BA8F20E030E040E85EE36D817E818F811B
:1016100098850E94AA13DC01CB018B8F9C8FAD8F24
:10162000BE8F20E030E040E85FE36F89788D898DE0
:101630009A8D0E948A1288231CF481E08F8FB2C099
:1016400020E03FEF4FE757E46B8D7C8D8D8D9E8DB5
:101650000E94A51318160CF07BC020E030E04AE78A
:1016600054E46D817E818F8198850E948F12DC0108
:10167000CB0188A399A3AAA3BBA320E030E04AE74B
:1016800053E468A179A18AA19BA10E94AA13DC015D
:10169000CB018CA39DA3AEA3BFA320E030E040E824
:1016A0005FE36CA17DA18EA19FA10E948A12882375
:1016B0002CF481E090E099A788A73FC020E03FEF9D
:1016C0004FE757E46CA17DA18EA19FA10E94A513B5
:1016D00018164CF520E030E040E251E468A179A111
:1016E0008AA19BA10E94AA13DC01CB01BC01CD0100
:1016F0000E940113DC01CB0199A788A70FC089E1E3
:1017000090E09BA78AA78AA59BA50197F1F79BA7C5
:101710008AA788A599A5019799A788A788A599A5BB
:10172000892B69F73FC06CA17DA18EA19FA10E946A
:101730000113DC01CB0199A788A788A599A59DA7CE
:101740008CA78CA59DA50197F1F79DA78CA72AC012
:1017500020E030E04FE753E46F89788D898D9A8DD2
:101760000E94A5131816ACF46B8D7C8D8D8D9E8D0B
:101770000E940113DC01CB019FA78EA78EA59FA518
:1017800099AB88AB88A999A90197F1F799AB88AB78
:101790000FC06F89788D898D9A8D0E940113DC01AD
:1017A000CB018F8F8F8D8AAB8AA98A95F1F78AAB8F
:1017B00085E390E025E330E0F90120812D7FFC01F5
:1017C000208380E090E0A0E0B0E489879A87AB872F
:1017D000BC8720E030E04AE753E469857A858B8551
:1017E0009C850E94AA13DC01CB018D879E87AF8761
:1017F000B88B20E030E040E85FE36D857E858F8523
:1018000098890E948A1288232CF481E090E09A8BB8
:10181000898B3FC020E03FEF4FE757E46D857E8521
:101820008F8598890E94A51318164CF520E030E0AA
:1018300040E251E469857A858B859C850E94AA13D4
:10184000DC01CB01BC01CD010E940113DC01CB0105
:101850009A8B898B0FC089E190E09C8B8B8B8B8955
:101860009C890197F1F79C8B8B8B89899A890197C9
:101870009A8B898B89899A89892B69F714C06D8520
:101880007E858F8598890E940113DC01CB019A8B9C
:10189000898B89899A899E8B8D8B8D899E890197E9
:1018A000F1F79E8B8D8B0000C15BDF4F0FB6F89474
:1018B000DEBF0FBECDBFDF91CF911F910F91089575
:1018C000CF93DF9300D0CDB7DEB79A8389830BC067
:1018D00089819A819C012F5F3F4F3A832983FC01C4
:1018E00080810E94340989819A81FC01808188234A
:1018F00079F700000F900F90DF91CF910895CF936B
:10190000DF93CDB7DEB762970FB6F894DEBF0FBE98
:10191000CDBF9A8B898B89899A894AE050E09E01D4
:101920002F5F3F4FB9010E941714CE0101960E940C
:10193000600C000062960FB6F894DEBF0FBECDBFFC
:10194000DF91CF910895CF93DF9300D000D0CDB732
:10195000DEB78A837C836B838A8187708A838A81DE
:10196000882F90E0880F991F880F991F880F991F63
:1019700080640E94DA0219820EC08981882F90E06B
:101980002B813C81820F931FFC0180810E943409CE
:1019900089818F5F89838981883078F380E80E940C
:1019A000DA0200000F900F900F900F90DF91CF910F
:1019B0000895CF93DF9300D01F92CDB7DEB78A830F
:1019C0006B838A81882311F480E001C080E48983DD
:1019D00099818B81890F80680E94DA0200000F9044
:1019E0000F900F90DF91CF910895CF93DF93CDB7F4
:1019F000DEB781E390E020EFFC01208382E390E0FA
:101A00002FEFFC0120830000DF91CF910895CF9349
:101A1000DF93CDB7DEB7C054D1090FB6F894DEBF5F
:101A20000FBECDBF198276C282E390E02FEFFC019A
:101A3000208382E390E022E330E0F9012081622FED
:101A40002981222F30E0A9014C5F5F4F21E030E077
:101A500002C0220F331F4A95E2F720952623FC018E
:101A6000208380E090E0A8E4B2E48D879E87AF8772
:101A7000B88B2BEA3AEA4AEA5EE36D857E858F856C
:101A800098890E94AA13DC01CB01898B9A8BAB8BBE
:101A9000BC8B20E030E040E85EE36D857E858F857D
:101AA00098890E94AA13DC01CB018D8B9E8BAF8B92
:101AB000B88F20E030E040E85FE369897A898B895C
:101AC0009C890E948A1288231CF481E0898FB2C00D
:101AD00020E03FEF4FE757E46D897E898F89988D2D
:101AE0000E94A51318160CF07BC020E030E04AE7F6
:101AF00054E46D857E858F8598890E948F12DC0164
:101B0000CB018A8F9B8FAC8FBD8F20E030E04AE7FE
:101B100053E46A8D7B8D8C8D9D8D0E94AA13DC0110
:101B2000CB018E8F9F8FA8A3B9A320E030E040E8BF
:101B30005FE36E8D7F8D88A199A10E948A12882310
:101B40002CF481E090E09BA38AA33FC020E03FEF0C
:101B50004FE757E46E8D7F8D88A199A10E94A51350
:101B600018164CF520E030E040E251E46A8D7B8DA0
:101B70008C8D9D8D0E94AA13DC01CB01BC01CD018F
:101B80000E940113DC01CB019BA38AA30FC089E152
:101B900090E09DA38CA38CA19DA10197F1F79DA33B
:101BA0008CA38AA19BA101979BA38AA38AA19BA135
:101BB000892B69F73FC06E8D7F8D88A199A10E9406
:101BC0000113DC01CB019BA38AA38AA19BA19FA344
:101BD0008EA38EA19FA10197F1F79FA38EA32AC088
:101BE00020E030E04FE753E469897A898B899C894A
:101BF0000E94A5131816ACF46D897E898F89988D83
:101C00000E940113DC01CB0199A788A788A599A59B
:101C10009BA78AA78AA59BA50197F1F79BA78AA7EF
:101C20000FC069897A898B899C890E940113DC0124
:101C3000CB01898F898D8CA78CA58A95F1F78CA70C
:101C400080E390E0FC0180818F708F831A825BC1FA
:101C50008F81882F90E02A81222F30E002C0959555
:101C600087952A95E2F781709927892B09F048C159
:101C700080E090E0A0EAB1E48B839C83AD83BE83D7
:101C800020E030E04AE753E46B817C818D819E81C6
:101C90000E94AA13DC01CB018DA79EA7AFA7B8AB0A
:101CA00020E030E040E85FE36DA57EA58FA598A910
:101CB0000E948A1288232CF481E090E09AAB89ABD1
:101CC0003FC020E03FEF4FE757E46DA57EA58FA50D
:101CD00098A90E94A51318164CF520E030E040E2C8
:101CE00051E46B817C818D819E810E94AA13DC016D
:101CF000CB01BC01CD010E940113DC01CB019AABE9
:101D000089AB0FC089E190E09CAB8BAB8BA99CA900
:101D10000197F1F79CAB8BAB89A99AA901979AAB74
:101D200089AB89A99AA9892B69F714C06DA57EA5ED
:101D30008FA598A90E940113DC01CB019AAB89AB56
:101D400089A99AA99EAB8DAB8DA99EA90197F1F7A0
:101D50009EAB8DAB80E390E0FC018081882F90E00A
:101D60008F7099272A81222F30E002C095958795A0
:101D70002A95E2F781709927892B09F0C1C08A81E1
:101D8000282F30E08981882F90E0220F331F220F07
:101D9000331F820F931F84579F4FFC0180818C87D4
:101DA0001DC082E390E02FEFFC01208382E390E0EE
:101DB00022E330E0F9012081622F2981222F30E0D7
:101DC000A9014C5F5F4F21E030E002C0220F331FBA
:101DD0004A95E2F720952623FC01208380E390E0DA
:101DE000FC018081882F90E08F7099272A81222F13
:101DF00030E002C0959587952A95E2F78170992782
:101E0000892B79F280E090E0A0EAB1E48887998795
:101E1000AA87BB8720E030E04AE753E468857985EC
:101E20008A859B850E94AA13DC01CB018FAB98AFFA
:101E3000A9AFBAAF20E030E040E85FE36FA978AD2A
:101E400089AD9AAD0E948A1288232CF481E090E03B
:101E50009CAF8BAF3FC020E03FEF4FE757E46FA947
:101E600078AD89AD9AAD0E94A51318164CF520E007
:101E700030E040E251E4688579858A859B850E943F
:101E8000AA13DC01CB01BC01CD010E940113DC01CE
:101E9000CB019CAF8BAF0FC089E190E09EAF8DAFBF
:101EA0008DAD9EAD0197F1F79EAF8DAF8BAD9CAD23
:101EB00001979CAF8BAF8BAD9CAD892B69F71EC092
:101EC0006FA978AD89AD9AAD0E940113DC01CB01F9
:101ED0009CAF8BAF2BAD3CADCE01CF96FC013183D7
:101EE0002083CE01CF96FC01808191810197F1F78B
:101EF0009E01215C3F4FF901918380838C850FC047
:101F00008A818F5F8A838A81843008F4A1CE898197
:101F10008F5F89838981843008F486CD8FEFC05C20
:101F2000DF4F0FB6F894DEBF0FBECDBFDF91CF916C
:101F30000895CF93DF93CDB7DEB728970FB6F89407
:101F4000DEBF0FBECDBF9A8389837C836B835E83A4
:101F50004D8338872F8389819A81FC0111821082F9
:101F60008B819C81FC01118210828D819E81FC01FC
:101F7000118210828F819885FC01108210929C0042
:101F80000E94360863E080E00E94D90C80E790E070
:101F90000E94600C60E081E00E94D90C8BE790E029
:101FA0000E94600C81E00E94340980E00E943409A4
:101FB00010929C00000028960FB6F894DEBF0FBE6A
:101FC000CDBFDF91CF910895CF93DF93CDB7DEB72B
:101FD000E3970FB6F894DEBF0FBECDBF0E949C07FB
:101FE0000E94F50C60E670E080E00E94A30C68E6B9
:101FF00070E081E00E94A30C63E080E00E94D90CB5
:1020000080E790E00E94600C60E081E00E94D90CC3
:102010008BE790E00E94600C81E00E94340980E030
:102020000E9434091EA61DA618AA1FA61AAA19AA3C
:102030001BAA0E94070D8A838A818F3F09F43CC244
:102040008A81833471F49E012D5C3F4FAE014F5C59
:102050005F4FBE01615D7F4FCE018D960E94990F4B
:1020600030C28A81803308F4AEC08A818A3308F096
:10207000AAC080919C00882309F077C00E9436088E
:1020800080E090E0A0E4B0E48B879C87AD87BE87BA
:1020900020E030E04AE753E46B857C858D859E85A2
:1020A0000E94AA13DC01CB018F87988BA98BBA8B76
:1020B00020E030E040E85FE36F85788989899A897C
:1020C0000E948A1288232CF481E090E09C8B8B8BF9
:1020D0003FC020E03FEF4FE757E46F85788989895B
:1020E0009A890E94A51318164CF520E030E040E2D2
:1020F00051E46B857C858D859E850E94AA13DC0149
:10210000CB01BC01CD010E940113DC01CB019C8BF2
:102110008B8B0FC089E190E09E8B8D8B8D899E8982
:102120000197F1F79E8B8D8B8B899C8901979C8BF6
:102130008B8B8B899C89892B69F714C06F85788973
:1021400089899A890E940113DC01CB019C8B8B8BBE
:102150008B899C89988F8F8B8F89988D0197F1F748
:10216000988F8F8B81E080939C008A810E94340934
:102170008BA98823A1F48DA59EA5880F991F9C018A
:10218000220F331F220F331F280F391F8A81882FF8
:1021900090E0C097820F931F9EA78DA792C18FA535
:1021A00098A9880F991F9C01220F331F220F331FFC
:1021B000280F391F8A81882F90E0C097820F931FC4
:1021C00098AB8FA77EC18A818B3249F08A818D328C
:1021D00031F08A818A3219F08A818F3259F48091E4
:1021E0009C00882309F46AC18A818BAB8A810E9492
:1021F000340967C18A818D3309F01BCF80919C001F
:10220000882309F45DC119828BA9882F90E08B3255
:10221000910561F08C3291051CF48A97D9F03AC08F
:102220008D32910561F08F9719F134C02DA53EA52F
:102230008FA598A9820F931F9AAB89AB30C02DA5AB
:102240003EA58FA598A9A901481B590BCA019AABB5
:1022500089AB25C04DA55EA52FA538A9429FC00119
:10226000439F900D529F900D11249AAB89AB17C0DC
:102270008FA598A9892B59F08DA59EA52FA538A9C2
:10228000B9010E946212CB019AAB89AB08C081E010
:10229000898305C08DA59EA59AAB89AB0000898175
:1022A000882309F486C00E94360883E890E00E94E3
:1022B000600C80E090E0AFE2B4E48B839C83AD835C
:1022C000BE8320E030E04AE753E46B817C818D815E
:1022D0009E810E94AA13DC01CB01898F9A8FAB8F5C
:1022E000BC8F20E030E040E85FE3698D7A8D8B8D14
:1022F0009C8D0E948A1288232CF481E090E09E8FAE
:102300008D8F3FC020E03FEF4FE757E4698D7A8D16
:102310008B8D9C8D0E94A51318164CF520E030E0A3
:1023200040E251E46B817C818D819E810E94AA13E1
:10233000DC01CB01BC01CD010E940113DC01CB010A
:102340009E8F8D8F0FC089E190E098A38F8F8F8D26
:1023500098A10197F1F798A38F8F8D8D9E8D01978E
:102360009E8F8D8F8D8D9E8D892B69F714C0698D01
:102370007A8D8B8D9C8D0E940113DC01CB019E8F89
:102380008D8F8D8D9E8D9AA389A389A19AA1019786
:10239000F1F79AA389A39E012D5C3F4FAE014F5CDC
:1023A0005F4FBE01615D7F4FCE018D960E94990FF8
:1023B00088C00E94360880E090E0A0E0B0E48F83FF
:1023C0009887A987BA8720E030E04AE753E46F8115
:1023D000788589859A850E94AA13DC01CB018BA39D
:1023E0009CA3ADA3BEA320E030E040E85FE36BA177
:1023F0007CA18DA19EA10E948A1288232CF481E0E9
:1024000090E098A78FA33FC020E03FEF4FE757E44D
:102410006BA17CA18DA19EA10E94A51318164CF55D
:1024200020E030E040E251E46F81788589859A852B
:102430000E94AA13DC01CB01BC01CD010E94011353
:10244000DC01CB0198A78FA30FC089E190E09AA788
:1024500089A789A59AA50197F1F79AA789A78FA1BE
:1024600098A5019798A78FA38FA198A5892B69F7A5
:1024700014C06BA17CA18DA19EA10E940113DC015F
:10248000CB0198A78FA38FA198A59CA78BA78BA5FD
:102490009CA50197F1F79CA78BA789A99AA90E94EF
:1024A0007F0C89A99AA99EA78DA718AA1FA61BAA67
:1024B00081E080939C00BDCD0000BBCD0000B9CD74
:1024C0000000B7CD97FB072E16F4009407D077FDD8
:1024D00009D00E94761207FC05D03EF490958195B4
:1024E0009F4F0895709561957F4F0895AA1BBB1B60
:1024F00051E107C0AA1FBB1FA617B70710F0A61B04
:10250000B70B881F991F5A95A9F780959095BC0124
:10251000CD0108950E94301308F481E008950E94CF
:10252000A3120C946B130E94641358F00E945D1365
:1025300040F029F45F3F29F00C94541351110C948E
:102540009F130C945A130E947C1368F39923B1F3E0
:10255000552391F3951B550BBB27AA2762177307C9
:10256000840738F09F5F5F4F220F331F441FAA1F5D
:10257000A9F335D00E2E3AF0E0E832D09150504019
:10258000E695001CCAF72BD0FE2F29D0660F771FC7
:10259000881FBB1F261737074807AB07B0E809F0AD
:1025A000BB0B802DBF01FF2793585F4F3AF09E3F32
:1025B000510578F00C9454130C949F135F3FE4F38F
:1025C000983ED4F3869577956795B795F7959F5F75
:1025D000C9F7880F911D9695879597F90895E1E0C1
:1025E000660F771F881FBB1F621773078407BA0720
:1025F00020F0621B730B840BBA0BEE1F88F7E0957B
:1026000008950E94841388F09F5798F0B92F992756
:10261000B751B0F0E1F0660F771F881F991F1AF0CD
:10262000BA95C9F714C0B13091F00E949E13B1E081
:1026300008950C949E13672F782F8827B85F39F080
:10264000B93FCCF3869577956795B395D9F73EF466
:1026500090958095709561957F4F8F4F9F4F08950E
:10266000990F0008550FAA0BE0E8FEEF16161706A3
:10267000E807F907C0F012161306E407F50798F00B
:10268000621B730B840B950B39F40A2661F0232B24
:10269000242B252B21F408950A2609F4A140A695A0
:1026A0008FEF811D811D089597F99F6780E870E085
:1026B00060E008959FEF80EC089500240A941616B8
:1026C000170618060906089500240A941216130620
:1026D000140605060895092E0394000C11F48823AE
:1026E00052F0BB0F40F4BF2B11F460FF04C06F5FCA
:1026F0007F4F8F4F9F4F089557FD9058440F551FA0
:1027000059F05F3F71F04795880F97FB991F61F073
:102710009F3F79F087950895121613061406551FEA
:10272000F2CF4695F1DF08C0161617061806991F56
:10273000F1CF86957105610508940895E894BB274B
:1027400066277727CB0197F908950E94301308F484
:102750008FEF08950E94BD130C946B130E945D13BC
:1027600038F00E94641320F0952311F00C94541358
:102770000C945A1311240C949F130E947C1370F331
:10278000959FC1F3950F50E0551F629FF001729F16
:10279000BB27F00DB11D639FAA27F00DB11DAA1F25
:1027A000649F6627B00DA11D661F829F2227B00D72
:1027B000A11D621F739FB00DA11D621F839FA00DFD
:1027C000611D221F749F3327A00D611D231F849F4D
:1027D000600D211D822F762F6A2F11249F575040A4
:1027E0009AF0F1F088234AF0EE0FFF1FBB1F661F1F
:1027F000771F881F91505040A9F79E3F510580F0E8
:102800000C9454130C949F135F3FE4F3983ED4F35D
:10281000869577956795B795F795E7959F5FC1F78B
:10282000FE2B880F911D9695879597F9089545324F
:10283000510520F4423010F00C942214FB01108258
:10284000CB010895BB274A3031F4992322F4BDE22D
:10285000909581959F4F0C942E14BB27FB01552713
:10286000AA27880F991FAA1FA41710F0A41B8395ED
:102870005051B9F7A05DAA3308F0A95DA193009764
:1028800079F7B111B1931192CB010C944714DC018B
:10289000FC01672F71917723E1F7329704C07C9197
:1028A0006D9370836291AE17BF07C8F30895F894D3
:0228B000FFCF58
:1028B20000001B1F1F0E040000000A0000110E0082
:1028C20043616C63205265616479004E6173736584
:1028D2007220004572722064697630003738392FD1
:0C28E2003435362A3132332D43303D2B83
:00000001FF
