:100000000C942A000C9425010C9438020C9447009F
:100010000C9447000C9447000C9447000C94470044
:100020000C9447000C9447000C9447000C94470034
:100030000C9447000C9447000C9447000C94470024
:100040000C9447000C9447000C9447000C94470014
:100050000C94470011241FBECFE5D4E0DEBFCDBF16
:1000600010E0A0E6B0E0EAECFEE102C005900D92DF
:10007000A437B107D9F720E0A4E7B0E001C01D9292
:10008000A837B207E1F70E94A70C0C94630F0C94F9
:100090000000CF93DF931F92CDB7DEB789838981AC
:1000A000882F90E081309105F9F0823091051CF4A1
:1000B000892B39F052C08230910549F10397D1F173
:1000C0004CC085E590E025E530E0F90120812E7FE8
:1000D000FC01208385E590E025E530E0F9012081F1
:1000E0002D7FFC01208339C085E590E025E530E0D7
:1000F000F90120812160FC01208385E590E025E560
:1001000030E0F90120812D7FFC01208326C085E5A8
:1001100090E025E530E0F90120812E7FFC0120836D
:1001200085E590E025E530E0F90120812260FC01C1
:10013000208313C085E590E025E530E0F9012081BA
:100140002160FC01208385E590E025E530E0F901A0
:1001500020812260FC012083000000000F90DF91CD
:10016000CF910895CF93DF9300D01F92CDB7DEB724
:1001700089837B836A8381E390E021E330E0F901A6
:1001800020812B7FFC01208382E390E022E330E09A
:10019000F90120812460FC01208389810E944900AB
:1001A0000E9414018A819B810E9401010E94DF004C
:1001B00000000F900F900F90DF91CF910895CF9393
:1001C000DF93CDB7DEB78BE590E02BE530E0F901AA
:1001D00020812064FC0120830000DF91CF910895ED
:1001E000CF93DF93CDB7DEB78BE590E02BE530E022
:1001F000F90120812F7BFC0120830000DF91CF914A
:100200000895CF93DF9300D0CDB7DEB79A8389836B
:1002100089819A81909375008093740000000F90FB
:100220000F90DF91CF910895CF93DF93CDB7DEB7D5
:100230008AE590E02AE530E0F90120812064FC01A4
:1002400020830000DF91CF9108951F920F920090BC
:100250005F000F9211242F933F934F935F936F93FF
:100260007F938F939F93AF93BF93EF93FF93CF931E
:10027000DF93CDB7DEB78091740090917500892B24
:1002800031F08091740090917500FC010995000097
:10029000DF91CF91FF91EF91BF91AF919F918F919E
:1002A0007F916F915F914F913F912F910F900092AD
:1002B0005F000F901F901895CF93DF931F92CDB7DB
:1002C000DEB789838981882F90E081309105F9F02C
:1002D000823091051CF4892B39F052C0823091058F
:1002E00049F10397D1F14CC085E590E025E530E078
:1002F000F90120812B7FFC01208385E590E025E535
:1003000030E0F9012081277FFC01208339C085E599
:1003100090E025E530E0F90120812460FC01208394
:1003200085E590E025E530E0F9012081277FFC019B
:10033000208326C085E590E025E530E0F9012081A5
:100340002B7FFC01208385E590E025E530E0F90175
:1003500020812860FC01208313C085E590E025E51D
:1003600030E0F90120812460FC01208385E590E0E4
:1003700025E530E0F90120812860FC0120830000A0
:1003800000000F90DF91CF910895CF93DF9300D0BD
:100390001F92CDB7DEB789837B836A8381E390E0C8
:1003A00021E330E0F9012081277FFC01208382E3F3
:1003B00090E022E330E0F90120812860FC012083F5
:1003C00089810E945C010E9427028A819B810E9490
:1003D00014020E94F20100000F900F900F90DF9125
:1003E000CF910895CF93DF93CDB7DEB78BE590E043
:1003F0002BE530E0F90120812068FC01208300001A
:10040000DF91CF910895CF93DF93CDB7DEB78BE522
:1004100090E02BE530E0F90120812F77FC0120836B
:100420000000DF91CF910895CF93DF9300D0CDB737
:10043000DEB79A83898389819A819093770080932C
:10044000760000000F900F90DF91CF910895CF9329
:10045000DF93CDB7DEB78AE590E02AE530E0F90119
:1004600020812068FC0120830000DF91CF91089556
:100470001F920F9200905F000F9211242F933F93D1
:100480004F935F936F937F938F939F93AF93BF939C
:10049000EF93FF93CF93DF93CDB7DEB780917600D4
:1004A00090917700892B31F08091760090917700C0
:1004B000FC0109950000DF91CF91FF91EF91BF9171
:1004C000AF919F918F917F916F915F914F913F91EC
:1004D0002F910F9000925F000F901F9018950F932F
:1004E0001F93CF93DF93CDB7DEB7CF56D1090FB6A9
:1004F000F894DEBF0FBECDBF9E0121593F4FF901D9
:10050000808388E390E028E330E0F9012081422FE6
:100510004F709E0121593F4FF9012081207F242BEC
:10052000FC01208388E390E028E330E0F90120819A
:100530002D7FFC01208388E390E028E330E0F9017F
:1005400020812160FC01208380E090E0A0E8BFE3EF
:1005500089839A83AB83BC838E010D5A1F4F2BEA8C
:100560003AEA4AEA5EE369817A818B819C810E9442
:10057000B60EDC01CB01F80180839183A283B383A3
:100580008E01095A1F4F20E030E040E85EE36981A8
:100590007A818B819C810E94B60EDC01CB01F8012F
:1005A00080839183A283B383CE018D5A9F4F20E035
:1005B00030E040E85FE3FC016081718182819381DA
:1005C0000E94960D88233CF4CE01855A9F4F21E06E
:1005D000FC0120832CC1CE01895A9F4F20E03FEFC0
:1005E0004FE757E4FC0160817181828193810E9411
:1005F000B10E18160CF0CDC020E030E04AE754E40C
:1006000069817A818B819C810E949B0DDC01CB01E9
:100610009E01245A3F4FF90180839183A283B383C3
:100620008E01005A1F4FCE01845A9F4F20E030E0C8
:100630004AE753E4FC0160817181828193810E94C9
:10064000B60EDC01CB01F80180839183A283B383D2
:10065000CE01805A9F4F20E030E040E85FE3FC018C
:1006600060817181828193810E94960D88234CF470
:10067000CE018C599F4F21E030E0FC013183208373
:100680006DC0CE01805A9F4F20E03FEF4FE757E407
:10069000FC0160817181828193810E94B10E1816E4
:1006A0000CF04AC0CE01845A9F4F20E030E040E277
:1006B00051E4FC0160817181828193810E94B60EB8
:1006C000DC01CB018E010C591F4FBC01CD010E94F2
:1006D0000D0EDC01CB01F8019183808324C0CE0193
:1006E0008A599F4F29E130E0FC0131832083CE01FC
:1006F0008A599F4FFC01808191810197F1F79E01FA
:100700002A593F4FF90191838083CE018C599F4F25
:100710009E012C593F4FF90120813181215031092F
:10072000FC0131832083CE018C599F4FFC018081D5
:100730009181892BA1F67BC08E010C591F4FCE01F0
:10074000805A9F4FFC0160817181828193810E9458
:100750000D0EDC01CB01F80191838083CE01885915
:100760009F4F9E012C593F4FF90120813181FC019F
:1007700031832083CE0188599F4FFC018081918174
:100780000197F1F79E0128593F4FF901918380832A
:100790004EC0CE018D5A9F4F20E030E04FE753E42A
:1007A000FC0160817181828193810E94B10E1816D3
:1007B0006CF58E0106591F4FCE01895A9F4FFC01DF
:1007C00060817181828193810E940D0EDC01CB01D9
:1007D000F80191838083CE0184599F4F9E01265951
:1007E0003F4FF90120813181FC0131832083CE010B
:1007F00084599F4FFC01808191810197F1F79E01FF
:1008000024593F4FF9019183808328C08E01055AF6
:100810001F4FCE018D5A9F4FFC01608171818281F3
:1008200093810E940D0EDC01CB01F8018083CE0183
:1008300082599F4F9E01255A3F4FF9012081FC01AB
:100840002083CE0182599F4FFC018081282F2A9559
:10085000F1F7CE0182599F4FFC01208388E390E09D
:1008600028E330E0F90120812E7FFC01208380E025
:1008700090E0A8E4B3E48D839E83AF83B8872BEA2E
:100880003AEA4AEA5EE36D817E818F8198850E9413
:10089000B60EDC01CB018FAB98AFA9AFBAAF20E0A9
:1008A00030E040E85EE36D817E818F8198850E9413
:1008B000B60EDC01CB018BAF9CAFADAFBEAF20E07D
:1008C00030E040E85FE36FA978AD89AD9AAD0E9452
:1008D000960D88231CF481E08FAF18C120E03FEF14
:1008E0004FE757E46BAD7CAD8DAD9EAD0E94B10E70
:1008F00018160CF0CDC020E030E04AE754E46D81DA
:100900007E818F8198850E949B0DDC01CB019E0129
:10091000205C3F4FF90180839183A283B3838E01D2
:100920000C5B1F4FCE01805C9F4F20E030E04AE718
:1009300053E4FC0160817181828193810E94B60E33
:10094000DC01CB01F80180839183A283B383CE01C4
:100950008C5B9F4F20E030E040E85FE3FC0160816A
:100960007181828193810E94960D88234CF4CE017F
:10097000885B9F4F21E030E0FC01318320836DC014
:10098000CE018C5B9F4F20E03FEF4FE757E4FC0127
:1009900060817181828193810E94B10E18160CF0E2
:1009A0004AC0CE01805C9F4F20E030E040E251E43D
:1009B000FC0160817181828193810E94B60EDC010D
:1009C000CB018E01085B1F4FBC01CD010E940D0EB3
:1009D000DC01CB01F8019183808324C0CE01865BCA
:1009E0009F4F29E130E0FC0131832083CE01865BFB
:1009F0009F4FFC01808191810197F1F79E01265B59
:100A00003F4FF90191838083CE01885B9F4F9E0108
:100A1000285B3F4FF9012081318121503109FC01D0
:100A200031832083CE01885B9F4FFC0180819181BF
:100A3000892BA1F66BC08E01085B1F4FCE018C5B2A
:100A40009F4FFC0160817181828193810E940D0E14
:100A5000DC01CB01F80191838083CE01845B9F4F41
:100A60009E01285B3F4FF90120813181FC013183D8
:100A70002083CE01845B9F4FFC018081918101978F
:100A8000F1F79E01245B3F4FF901918380833EC0C3
:100A900020E030E04FE753E46FA978AD89AD9AAD1F
:100AA0000E94B10E18164CF58E01025B1F4F6BAD04
:100AB0007CAD8DAD9EAD0E940D0EDC01CB01F80129
:100AC00091838083CE01805B9F4F9E01225B3F4FCD
:100AD000F90120813181FC0131832083CE01805BCB
:100AE0009F4FFC01808191810197F1F79E01205B6E
:100AF0003F4FF901918380831CC06FA978AD89AD08
:100B00009AAD0E940D0EDC01CB018FAFCE018E5A43
:100B10009F4F2FADFC012083CE018E5A9F4FFC01C9
:100B20008081282F2A95F1F7CE018E5A9F4FFC0124
:100B3000208388E390E028E330E0F9012081422F10
:100B40004F709E0121593F4FF9012081222F30E043
:100B500022953295307F3227207F3227242BFC01CB
:100B6000208388E390E028E330E0F90120812160D0
:100B7000FC01208380E090E0A0E8BFE389879A87AA
:100B8000AB87BC872BEA3AEA4AEA5EE369857A8555
:100B90008B859C850E94B60EDC01CB018B8F9C8FD0
:100BA000AD8FBE8F20E030E040E85EE369857A8556
:100BB0008B859C850E94B60EDC01CB018F8F98A39C
:100BC000A9A3BAA320E030E040E85FE36B8D7C8D01
:100BD0008D8D9E8D0E94960D88231CF481E08BA341
:100BE000B2C020E03FEF4FE757E46F8D78A189A1B5
:100BF0009AA10E94B10E18160CF07BC020E030E0E4
:100C00004AE754E469857A858B859C850E949B0D13
:100C1000DC01CB018CA39DA3AEA3BFA320E030E0F9
:100C20004AE753E46CA17DA18EA19FA10E94B60E5C
:100C3000DC01CB0188A799A7AAA7BBA720E030E0D9
:100C400040E85FE368A579A58AA59BA50E94960D5B
:100C500088232CF481E090E09DA78CA73FC020E082
:100C60003FEF4FE757E468A579A58AA59BA50E94A9
:100C7000B10E18164CF520E030E040E251E46CA1D2
:100C80007DA18EA19FA10E94B60EDC01CB01BC010B
:100C9000CD010E940D0EDC01CB019DA78CA70FC0DA
:100CA00089E190E09FA78EA78EA59FA50197F1F7F8
:100CB0009FA78EA78CA59DA501979DA78CA78CA506
:100CC0009DA5892B69F73FC068A579A58AA59BA535
:100CD0000E940D0EDC01CB019DA78CA78CA59DA5C4
:100CE00099AB88AB88A999A90197F1F799AB88AB23
:100CF0002AC020E030E04FE753E46B8D7C8D8D8D72
:100D00009E8D0E94B10E1816ACF46F8D78A189A14A
:100D10009AA10E940D0EDC01CB019BAB8AAB8AA984
:100D20009BA99DAB8CAB8CA99DA90197F1F79DABBD
:100D30008CAB0FC06B8D7C8D8D8D9E8D0E940D0EAA
:100D4000DC01CB018BA38BA18EAB8EA98A95F1F729
:100D50008EAB88E390E028E330E0F90120812E7F1C
:100D6000FC01208380E090E0A0E0B0E48D879E87C6
:100D7000AF87B88B20E030E04AE753E46D857E858D
:100D80008F8598890E94B60EDC01CB01898B9A8BE6
:100D9000AB8BBC8B20E030E040E85FE369897A8967
:100DA0008B899C890E94960D88232CF481E090E029
:100DB0009E8B8D8B3FC020E03FEF4FE757E4698962
:100DC0007A898B899C890E94B10E18164CF520E017
:100DD00030E040E251E46D857E858F8598890E94E0
:100DE000B60EDC01CB01BC01CD010E940D0EDC0171
:100DF000CB019E8B8D8B0FC089E190E0988F8F8BFC
:100E00008F89988D0197F1F7988F8F8B8D899E89A7
:100E100001979E8B8D8B8D899E89892B69F714C0D4
:100E200069897A898B899C890E940D0EDC01CB012E
:100E30009E8B8D8B8D899E899A8F898F898D9A8DB6
:100E40000197F1F79A8F898F0000C159DF4F0FB6D4
:100E5000F894DEBF0FBECDBFDF91CF911F910F91F0
:100E60000895CF93DF93CDB7DEB72E970FB6F894E2
:100E7000DEBF0FBECDBF87E390E02FEFFC012083E4
:100E800080E090E0A0EAB1E489839A83AB83BC83DD
:100E900020E030E04AE753E469817A818B819C81CC
:100EA0000E94B60EDC01CB018D839E83AF83B88791
:100EB00020E030E040E85FE36D817E818F8198859E
:100EC0000E94960D88232CF481E090E09A87898710
:100ED0003FC020E03FEF4FE757E46D817E818F8177
:100EE00098850E94B10E18164CF520E030E040E2E3
:100EF00051E469817A818B819C810E94B60EDC016C
:100F0000CB01BC01CD010E940D0EDC01CB019A8703
:100F100089870FC089E190E09C878B878B859C85B2
:100F20000197F1F79C878B8789859A8501979A8726
:100F3000898789859A85892B69F714C06D817E819F
:100F40008F8198850E940D0EDC01CB019A878987DD
:100F500089859A859E878D878D859E850197F1F776
:100F60009E878D8782E00E946F0288E20E946F0256
:100F70008CE00E946F0286E00E946F0281E00E9476
:100F80006F0200002E960FB6F894DEBF0FBECDBFE5
:100F9000DF91CF910895CF93DF93CDB7DEB76C97F4
:100FA0000FB6F894DEBF0FBECDBF81E00E946F0286
:100FB00080E090E0A0EAB0E489839A83AB83BC83AD
:100FC00020E030E04AE753E469817A818B819C819B
:100FD0000E94B60EDC01CB018B8B9C8BAD8BBE8B44
:100FE00020E030E040E85FE36B897C898D899E8951
:100FF0000E94960D88232CF481E090E0988F8F8BCF
:101000003FC020E03FEF4FE757E46B897C898D8933
:101010009E890E94B10E18164CF520E030E040E2A7
:1010200051E469817A818B819C810E94B60EDC013A
:10103000CB01BC01CD010E940D0EDC01CB01988FCC
:101040008F8B0FC089E190E09A8F898F898D9A8D5F
:101050000197F1F79A8F898F8F89988D0197988FD3
:101060008F8B8F89988D892B69F714C06B897C8948
:101070008D899E890E940D0EDC01CB01988F8F8B8C
:101080008F89988D9C8F8B8F8B8D9C8D0197F1F71D
:101090009C8F8B8F80E80E946F0280E090E0A0E838
:1010A000BFE38D839E83AF83B88720E030E04AE7BB
:1010B00053E46D817E818F8198850E94B60EDC019C
:1010C000CB0189879A87AB87BC8720E030E040E876
:1010D0005FE369857A858B859C850E94960D8823C0
:1010E0002CF481E090E09E878D873FC020E03FEFA9
:1010F0004FE757E469857A858B859C850E94B10E00
:1011000018164CF520E030E040E251E46D817E811C
:101110008F8198850E94B60EDC01CB01BC01CD0108
:101120000E940D0EDC01CB019E878D870FC089E1E7
:1011300090E0988B8F878F8598890197F1F7988B2E
:101140008F878D859E8501979E878D878D859E854E
:10115000892B69F714C069857A858B859C850E94E7
:101160000D0EDC01CB019E878D878D859E859A8B28
:10117000898B89899A890197F1F79A8B898B00006D
:101180006C960FB6F894DEBF0FBECDBFDF91CF9146
:1011900008950F931F93CF93DF93CDB7DEB7CF544E
:1011A000D1090FB6F894DEBF0FBECDBF9E01215B03
:1011B0003F4FF901808388E390E028E330E0F901B4
:1011C0002081422F4F709E01215B3F4FF90120810A
:1011D000207F242BFC01208388E390E028E330E08B
:1011E000F90120812260FC01208388E390E028E35C
:1011F00030E0F90120812160FC01208380E090E053
:10120000A0E8BFE389839A83AB83BC832BEA3AEAE5
:101210004AEA5EE369817A818B819C810E94B60EE5
:10122000DC01CB018BAB9CABADABBEAB20E030E0C7
:1012300040E85EE369817A818B819C810E94B60ED1
:10124000DC01CB018FAB98AFA9AFBAAF20E030E0A3
:1012500040E85FE36BA97CA98DA99EA90E94960D29
:1012600088231CF481E08BAF0CC120E03FEF4FE7F7
:1012700057E46FA978AD89AD9AAD0E94B10E1816EA
:101280000CF0C1C020E030E04AE754E469817A8183
:101290008B819C810E949B0DDC01CB018CAF9DAFAB
:1012A000AEAFBFAF8E01005C1F4F20E030E04AE7D9
:1012B00053E46CAD7DAD8EAD9FAD0E94B60EDC01EA
:1012C000CB01F80180839183A283B383CE01805C3C
:1012D0009F4F20E030E040E85FE3FC0160817181D6
:1012E000828193810E94960D88234CF4CE018C5B01
:1012F0009F4F21E030E0FC013183208369C0CE01A3
:10130000805C9F4F20E03FEF4FE757E4FC01608196
:101310007181828193810E94B10E18160CF046C033
:1013200020E030E040E251E46CAD7DAD8EAD9FAD8C
:101330000E94B60EDC01CB018E010C5B1F4FBC017D
:10134000CD010E940D0EDC01CB01F8019183808359
:1013500024C0CE018A5B9F4F29E130E0FC0131833C
:101360002083CE018A5B9F4FFC0180819181019790
:10137000F1F79E012A5B3F4FF90191838083CE01F3
:101380008C5B9F4F9E012C5B3F4FF9012081318187
:1013900021503109FC0131832083CE018C5B9F4FAA
:1013A000FC0180819181892BA1F66BC08E010C5BC1
:1013B0001F4FCE01805C9F4FFC0160817181828153
:1013C00093810E940D0EDC01CB01F8019183808393
:1013D000CE01885B9F4F9E012C5B3F4FF90120811E
:1013E0003181FC0131832083CE01885B9F4FFC015A
:1013F000808191810197F1F79E01285B3F4FF901B0
:10140000918380833EC020E030E04FE753E46BA936
:101410007CA98DA99EA90E94B10E18164CF58E01CB
:10142000065B1F4F6FA978AD89AD9AAD0E940D0E76
:10143000DC01CB01F80191838083CE01845B9F4F57
:101440009E01265B3F4FF90120813181FC013183F0
:101450002083CE01845B9F4FFC01808191810197A5
:10146000F1F79E01245B3F4FF901918380831CC0FB
:101470006BA97CA98DA99EA90E940D0EDC01CB0150
:101480008BAFCE01825B9F4F2BADFC012083CE0141
:10149000825B9F4FFC018081282F2A95F1F7CE01B6
:1014A000825B9F4FFC01208388E390E028E330E0DB
:1014B000F90120812E7FFC01208388E390E028E35E
:1014C00030E0F9012081422F4F709E01215B3F4F98
:1014D000F9012081222F30E022953295307F32278A
:1014E000207F3227242BFC01208388E390E028E32F
:1014F00030E0F90120812160FC01208380E090E050
:10150000A0E8BFE38D839E83AF83B8872BEA3AEAD6
:101510004AEA5EE36D817E818F8198850E94B60ED6
:10152000DC01CB018F8B988FA98FBA8F20E030E040
:1015300040E85EE36D817E818F8198850E94B60EC2
:10154000DC01CB018B8F9C8FAD8FBE8F20E030E014
:1015500040E85FE36F89788D898D9A8D0E94960DA2
:1015600088231CF481E08F8FB2C020E03FEF4FE76B
:1015700057E46B8D7C8D8D8D9E8D0E94B10E18165B
:101580000CF07BC020E030E04AE754E46D817E81BE
:101590008F8198850E949B0DDC01CB0188A399A3C4
:1015A000AAA3BBA320E030E04AE753E468A179A1F5
:1015B0008AA19BA10E94B60EDC01CB018CA39DA346
:1015C000AEA3BFA320E030E040E85FE36CA17DA1C3
:1015D0008EA19FA10E94960D88232CF481E090E0BB
:1015E00099A788A73FC020E03FEF4FE757E46CA1E1
:1015F0007DA18EA19FA10E94B10E18164CF520E08E
:1016000030E040E251E468A179A18AA19BA10E9447
:10161000B60EDC01CB01BC01CD010E940D0EDC0138
:10162000CB0199A788A70FC089E190E09BA78AA763
:101630008AA59BA50197F1F79BA78AA788A599A5DD
:10164000019799A788A788A599A5892B69F73FC015
:101650006CA17DA18EA19FA10E940D0EDC01CB018A
:1016600099A788A788A599A59DA78CA78CA59DA5B6
:101670000197F1F79DA78CA72AC020E030E04FE743
:1016800053E46F89788D898D9A8D0E94B10E18165A
:10169000ACF46B8D7C8D8D8D9E8D0E940D0EDC01CA
:1016A000CB019FA78EA78EA59FA599AB88AB88A9D4
:1016B00099A90197F1F799AB88AB0FC06F89788D25
:1016C000898D9A8D0E940D0EDC01CB018F8F8F8D3D
:1016D0008AAB8AA98A95F1F78AAB88E390E028E380
:1016E00030E0F90120812E7FFC01208380E090E032
:1016F000A0E0B0E489879A87AB87BC8720E030E020
:101700004AE753E469857A858B859C850E94B60EED
:10171000DC01CB018D879E87AF87B88B20E030E05E
:1017200040E85FE36D857E858F8598890E94960DE0
:1017300088232CF481E090E09A8B898B3FC020E0D5
:101740003FEF4FE757E46D857E858F8598890E942E
:10175000B10E18164CF520E030E040E251E4698506
:101760007A858B859C850E94B60EDC01CB01BC017D
:10177000CD010E940D0EDC01CB019A8B898B0FC02D
:1017800089E190E09C8B8B8B8B899C890197F1F789
:101790009C8B8B8B89899A8901979A8B898B8989F4
:1017A0009A89892B69F714C06D857E858F85988904
:1017B0000E940D0EDC01CB019A8B898B89899A8955
:1017C0009E8B8D8B8D899E890197F1F79E8B8D8BDA
:1017D0000000C15BDF4F0FB6F894DEBF0FBECDBF78
:1017E000DF91CF911F910F910895CF93DF9300D098
:1017F000CDB7DEB79A8389830BC089819A819C011A
:101800002F5F3F4F3A832983FC0180810E94C908E2
:1018100089819A81FC018081882379F700000F90EB
:101820000F90DF91CF910895CF93DF93CDB7DEB7BF
:1018300062970FB6F894DEBF0FBECDBF9A8B898B2F
:1018400089899A894AE050E09E012F5F3F4FB90194
:101850000E94230FCE0101960E94F50B00006296B4
:101860000FB6F894DEBF0FBECDBFDF91CF910895C4
:10187000CF93DF9300D000D0CDB7DEB78A837C83CF
:101880006B838A8187708A838A81882F90E0880F92
:10189000991F880F991F880F991F80640E946F02FB
:1018A00019820EC08981882F90E02B813C81820FA4
:1018B000931FFC0180810E94C90889818F5F898301
:1018C0008981883078F380E80E946F0200000F90D1
:1018D0000F900F900F90DF91CF910895CF93DF93EA
:1018E00000D01F92CDB7DEB78A836B838A818823AD
:1018F00011F480E001C080E4898399818B81890F94
:1019000080680E946F0200000F900F900F90DF918F
:10191000CF910895CF93DF93CDB7DEB782E390E008
:1019200022E330E0F901308120E22327FC0120830B
:101930000000DF91CF910895CF93DF93CDB7DEB74D
:1019400081E0809360000000DF91CF910895CF93F4
:10195000DF93CDB7DEB72E970FB6F894DEBF0FBE7C
:10196000CDBF81E390E021E330E0F90120812062E6
:10197000FC01208382E390E022E330E0F901208142
:101980002F7DFC0120830E9431070E946B0D6AE8C5
:101990007CE082E00E94B2006CE97CE082E00E9480
:1019A000C501789481E690E00E94F50B64E080E048
:1019B0000E946E0C86E690E00E94F50B64E080E0E9
:1019C0000E946E0C80916000882F90E00E94140CA1
:1019D000809160000E947C0D809160008F5F8093F9
:1019E0006000809160008A3018F081E08093600090
:1019F00080E090E0AFEAB3E489839A83AB83BC8351
:101A000020E030E04AE753E469817A818B819C8150
:101A10000E94B60EDC01CB018D839E83AF83B88715
:101A200020E030E040E85FE36D817E818F81988522
:101A30000E94960D88232CF481E090E09A87898794
:101A40003FC020E03FEF4FE757E46D817E818F81FB
:101A500098850E94B10E18164CF520E030E040E267
:101A600051E469817A818B819C810E94B60EDC01F0
:101A7000CB01BC01CD010E940D0EDC01CB019A8788
:101A800089870FC089E190E09C878B878B859C8537
:101A90000197F1F79C878B8789859A8501979A87AB
:101AA000898789859A85892B69F714C06D817E8124
:101AB0008F8198850E940D0EDC01CB019A87898762
:101AC00089859A859E878D878D859E850197F1F7FB
:101AD0009E878D876BCFCF93DF93CDB7DEB784E33F
:101AE00090E02FE7FC01208385E390E0FC01108269
:101AF0000000DF91CF910895CF93DF931F92CDB770
:101B0000DEB7898389818A3008F0198285E390E005
:101B10002981222F30E026593F4FF9012081FC0115
:101B2000208300000F90DF91CF9108950E943C0E1A
:101B300008F481E008950E94AF0D0C94770E0E9486
:101B4000700E58F00E94690E40F029F45F3F29F0B2
:101B50000C94600E51110C94AB0E0C94660E0E9406
:101B6000880E68F39923B1F3552391F3951B550B18
:101B7000BB27AA2762177307840738F09F5F5F4F60
:101B8000220F331F441FAA1FA9F335D00E2E3AF09F
:101B9000E0E832D091505040E695001CCAF72BD0B7
:101BA000FE2F29D0660F771F881FBB1F2617370708
:101BB0004807AB07B0E809F0BB0B802DBF01FF273A
:101BC00093585F4F3AF09E3F510578F00C94600EA9
:101BD0000C94AB0E5F3FE4F3983ED4F38695779573
:101BE0006795B795F7959F5FC9F7880F911D9695F3
:101BF000879597F90895E1E0660F771F881FBB1F4F
:101C0000621773078407BA0720F0621B730B840BFB
:101C1000BA0BEE1F88F7E09508950E94900E88F0A9
:101C20009F5798F0B92F9927B751B0F0E1F0660FA0
:101C3000771F881F991F1AF0BA95C9F714C0B130E1
:101C400091F00E94AA0EB1E008950C94AA0E672F9D
:101C5000782F8827B85F39F0B93FCCF38695779510
:101C60006795B395D9F73EF49095809570956195F9
:101C70007F4F8F4F9F4F0895990F0008550FAA0B64
:101C8000E0E8FEEF16161706E807F907C0F012168F
:101C90001306E407F50798F0621B730B840B950B92
:101CA00039F40A2661F0232B242B252B21F40895E7
:101CB0000A2609F4A140A6958FEF811D811D089584
:101CC00097F99F6780E870E060E008959FEF80ECEF
:101CD000089500240A941616170618060906089592
:101CE00000240A9412161306140605060895092EF8
:101CF0000394000C11F4882352F0BB0F40F4BF2B67
:101D000011F460FF04C06F5F7F4F8F4F9F4F0895A6
:101D100057FD9058440F551F59F05F3F71F047959C
:101D2000880F97FB991F61F09F3F79F08795089581
:101D3000121613061406551FF2CF4695F1DF08C0A0
:101D4000161617061806991FF1CF869571056105BD
:101D500008940895E894BB2766277727CB0197F965
:101D600008950E943C0E08F48FEF08950E94C90E5A
:101D70000C94770E0E94690E38F00E94700E20F0CD
:101D8000952311F00C94600E0C94660E11240C94A3
:101D9000AB0E0E94880E70F3959FC1F3950F50E033
:101DA000551F629FF001729FBB27F00DB11D639F0D
:101DB000AA27F00DB11DAA1F649F6627B00DA11DB3
:101DC000661F829F2227B00DA11D621F739FB00D59
:101DD000A11D621F839FA00D611D221F749F3327C9
:101DE000A00D611D231F849F600D211D822F762F62
:101DF0006A2F11249F5750409AF0F1F088234AF03F
:101E0000EE0FFF1FBB1F661F771F881F91505040AA
:101E1000A9F79E3F510580F00C94600E0C94AB0E18
:101E20005F3FE4F3983ED4F3869577956795B79531
:101E3000F795E7959F5FC1F7FE2B880F911D96954B
:101E4000879597F908954532510520F4423010F0F6
:101E50000C942E0FFB011082CB010895BB274A3052
:101E600031F4992322F4BDE2909581959F4F0C9413
:101E70003A0FBB27FB015527AA27880F991FAA1FD6
:101E8000A41710F0A41B83955051B9F7A05DAA3395
:101E900008F0A95DA193009779F7B111B193119260
:101EA000CB010C94530FDC01FC01672F7191772358
:101EB000E1F7329704C07C916D9370836291AE1705
:0A1EC000BF07C8F30895F894FFCFA0
:101ECA0001434E543A00202020003F065B4F666DC6
:041EDA007D077F6F92
:00000001FF
