:100000000C942A000C943F000C943F000C943F0089
:100010000C943F000C943F000C943F000C943F0064
:100020000C943F000C943F000C943F000C943F0054
:100030000C943F000C943F000C943F000C943F0044
:100040000C943F000C943F000C943F000C943F0034
:100050000C943F0011241FBECFE5D4E0DEBFCDBF1E
:1000600010E0A0E6B0E0E8E7F3E202C005900D92F0
:10007000AC38B107D9F70E94B10B0C94BA110C94AB
:100080000000CF93DF93CDB7DEB78AE390E02AE399
:1000900030E0F90120812E7FFC01208387E290E08F
:1000A00020E4FC01208386E290E026E230E0F901C2
:1000B00020812068FC0120830000DF91CF9108950A
:1000C000CF93DF9300D01F92CDB7DEB78B838B81A8
:1000D00087708B8387E290E027E230E0F90120818E
:1000E000322F307E2B81232BFC01208386E290E08F
:1000F00026E230E0F90120812064FC012083000029
:1001000086E290E0FC018081882F90E0807499273E
:10011000892BB1F784E290E0FC018081898385E23C
:1001200090E0FC0180818A838A81882F90E0382FBB
:1001300022278981882F90E0822B932B0F900F909C
:100140000F90DF91CF910895CF93DF93CDB7DEB7B6
:1001500084E390E0FC01808184E390E02FEFFC01D8
:10016000208385E390E0FC01808185E390E0FC0141
:1001700010820000DF91CF910895CF93DF931F92FB
:10018000CDB7DEB7898385E390E0FC01808185E30C
:1001900090E02981FC01208300000F90DF91CF9136
:1001A0000895CF93DF9300D01F92CDB7DEB78B8336
:1001B0008B81893010F088E08B8319821A8211C0FC
:1001C0008A81282F30E081E090E002C0880F991FDB
:1001D0002A95E2F7982F8981892B89838A818F5FFD
:1001E0008A839A818B81981758F389810E94BD0078
:1001F00000000F900F900F90DF91CF9108950F9313
:100200001F93CF93DF93CDB7DEB7CF56D1090FB68B
:10021000F894DEBF0FBECDBF9E0121593F4FF901BB
:10022000808388E390E028E330E0F9012081422FC9
:100230004F709E0121593F4FF9012081207F242BCF
:10024000FC01208388E390E028E330E0F90120817D
:100250002D7FFC01208388E390E028E330E0F90162
:1002600020812160FC01208380E090E0A0E8BFE3D2
:1002700089839A83AB83BC838E010D5A1F4F2BEA6F
:100280003AEA4AEA5EE369817A818B819C810E9425
:10029000150EDC01CB01F80180839183A283B38327
:1002A0008E01095A1F4F20E030E040E85EE369818B
:1002B0007A818B819C810E94150EDC01CB01F801B3
:1002C00080839183A283B383CE018D5A9F4F20E018
:1002D00030E040E85FE3FC016081718182819381BD
:1002E0000E94F50C88233CF4CE01855A9F4F21E0F3
:1002F000FC0120832CC1CE01895A9F4F20E03FEFA3
:100300004FE757E4FC0160817181828193810E94F3
:10031000100E18160CF0CDC020E030E04AE754E48F
:1003200069817A818B819C810E94FA0CDC01CB016E
:100330009E01245A3F4FF90180839183A283B383A6
:100340008E01005A1F4FCE01845A9F4F20E030E0AB
:100350004AE753E4FC0160817181828193810E94AC
:10036000150EDC01CB01F80180839183A283B38356
:10037000CE01805A9F4F20E030E040E85FE3FC016F
:1003800060817181828193810E94F50C88234CF4F5
:10039000CE018C599F4F21E030E0FC013183208356
:1003A0006DC0CE01805A9F4F20E03FEF4FE757E4EA
:1003B000FC0160817181828193810E94100E181668
:1003C0000CF04AC0CE01845A9F4F20E030E040E25A
:1003D00051E4FC0160817181828193810E94150E3C
:1003E000DC01CB018E010C591F4FBC01CD010E94D5
:1003F0006C0DDC01CB01F8019183808324C0CE0118
:100400008A599F4F29E130E0FC0131832083CE01DE
:100410008A599F4FFC01808191810197F1F79E01DC
:100420002A593F4FF90191838083CE018C599F4F08
:100430009E012C593F4FF901208131812150310912
:10044000FC0131832083CE018C599F4FFC018081B8
:100450009181892BA1F67BC08E010C591F4FCE01D3
:10046000805A9F4FFC0160817181828193810E943B
:100470006C0DDC01CB01F80191838083CE0188599A
:100480009F4F9E012C593F4FF90120813181FC0182
:1004900031832083CE0188599F4FFC018081918157
:1004A0000197F1F79E0128593F4FF901918380830D
:1004B0004EC0CE018D5A9F4F20E030E04FE753E40D
:1004C000FC0160817181828193810E94100E181657
:1004D0006CF58E0106591F4FCE01895A9F4FFC01C2
:1004E00060817181828193810E946C0DDC01CB015E
:1004F000F80191838083CE0184599F4F9E01265934
:100500003F4FF90120813181FC0131832083CE01ED
:1005100084599F4FFC01808191810197F1F79E01E1
:1005200024593F4FF9019183808328C08E01055AD9
:100530001F4FCE018D5A9F4FFC01608171818281D6
:1005400093810E946C0DDC01CB01F8018083CE0108
:1005500082599F4F9E01255A3F4FF9012081FC018E
:100560002083CE0182599F4FFC018081282F2A953C
:10057000F1F7CE0182599F4FFC01208388E390E080
:1005800028E330E0F90120812E7FFC01208380E008
:1005900090E0A8E4B3E48D839E83AF83B8872BEA11
:1005A0003AEA4AEA5EE36D817E818F8198850E94F6
:1005B000150EDC01CB018FAB98AFA9AFBAAF20E02D
:1005C00030E040E85EE36D817E818F8198850E94F6
:1005D000150EDC01CB018BAF9CAFADAFBEAF20E001
:1005E00030E040E85FE36FA978AD89AD9AAD0E9435
:1005F000F50C88231CF481E08FAF18C120E03FEF99
:100600004FE757E46BAD7CAD8DAD9EAD0E94100EF3
:1006100018160CF0CDC020E030E04AE754E46D81BC
:100620007E818F8198850E94FA0CDC01CB019E01AE
:10063000205C3F4FF90180839183A283B3838E01B5
:100640000C5B1F4FCE01805C9F4F20E030E04AE7FB
:1006500053E4FC0160817181828193810E94150EB7
:10066000DC01CB01F80180839183A283B383CE01A7
:100670008C5B9F4F20E030E040E85FE3FC0160814D
:100680007181828193810E94F50C88234CF4CE0104
:10069000885B9F4F21E030E0FC01318320836DC0F7
:1006A000CE018C5B9F4F20E03FEF4FE757E4FC010A
:1006B00060817181828193810E94100E18160CF066
:1006C0004AC0CE01805C9F4F20E030E040E251E420
:1006D000FC0160817181828193810E94150EDC0191
:1006E000CB018E01085B1F4FBC01CD010E946C0D38
:1006F000DC01CB01F8019183808324C0CE01865BAD
:100700009F4F29E130E0FC0131832083CE01865BDD
:100710009F4FFC01808191810197F1F79E01265B3B
:100720003F4FF90191838083CE01885B9F4F9E01EB
:10073000285B3F4FF9012081318121503109FC01B3
:1007400031832083CE01885B9F4FFC0180819181A2
:10075000892BA1F66BC08E01085B1F4FCE018C5B0D
:100760009F4FFC0160817181828193810E946C0D99
:10077000DC01CB01F80191838083CE01845B9F4F24
:100780009E01285B3F4FF90120813181FC013183BB
:100790002083CE01845B9F4FFC0180819181019772
:1007A000F1F79E01245B3F4FF901918380833EC0A6
:1007B00020E030E04FE753E46FA978AD89AD9AAD02
:1007C0000E94100E18164CF58E01025B1F4F6BAD88
:1007D0007CAD8DAD9EAD0E946C0DDC01CB01F801AE
:1007E00091838083CE01805B9F4F9E01225B3F4FB0
:1007F000F90120813181FC0131832083CE01805BAE
:100800009F4FFC01808191810197F1F79E01205B50
:100810003F4FF901918380831CC06FA978AD89ADEA
:100820009AAD0E946C0DDC01CB018FAFCE018E5AC8
:100830009F4F2FADFC012083CE018E5A9F4FFC01AC
:100840008081282F2A95F1F7CE018E5A9F4FFC0107
:10085000208388E390E028E330E0F9012081422FF3
:100860004F709E0121593F4FF9012081222F30E026
:1008700022953295307F3227207F3227242BFC01AE
:10088000208388E390E028E330E0F90120812160B3
:10089000FC01208380E090E0A0E8BFE389879A878D
:1008A000AB87BC872BEA3AEA4AEA5EE369857A8538
:1008B0008B859C850E94150EDC01CB018B8F9C8F54
:1008C000AD8FBE8F20E030E040E85EE369857A8539
:1008D0008B859C850E94150EDC01CB018F8F98A320
:1008E000A9A3BAA320E030E040E85FE36B8D7C8DE4
:1008F0008D8D9E8D0E94F50C88231CF481E08BA3C6
:10090000B2C020E03FEF4FE757E46F8D78A189A197
:100910009AA10E94100E18160CF07BC020E030E067
:100920004AE754E469857A858B859C850E94FA0C98
:10093000DC01CB018CA39DA3AEA3BFA320E030E0DC
:100940004AE753E46CA17DA18EA19FA10E94150EE0
:10095000DC01CB0188A799A7AAA7BBA720E030E0BC
:1009600040E85FE368A579A58AA59BA50E94F50CE0
:1009700088232CF481E090E09DA78CA73FC020E065
:100980003FEF4FE757E468A579A58AA59BA50E948C
:10099000100E18164CF520E030E040E251E46CA156
:1009A0007DA18EA19FA10E94150EDC01CB01BC018F
:1009B000CD010E946C0DDC01CB019DA78CA70FC05F
:1009C00089E190E09FA78EA78EA59FA50197F1F7DB
:1009D0009FA78EA78CA59DA501979DA78CA78CA5E9
:1009E0009DA5892B69F73FC068A579A58AA59BA518
:1009F0000E946C0DDC01CB019DA78CA78CA59DA549
:100A000099AB88AB88A999A90197F1F799AB88AB05
:100A10002AC020E030E04FE753E46B8D7C8D8D8D54
:100A20009E8D0E94100E1816ACF46F8D78A189A1CE
:100A30009AA10E946C0DDC01CB019BAB8AAB8AA909
:100A40009BA99DAB8CAB8CA99DA90197F1F79DABA0
:100A50008CAB0FC06B8D7C8D8D8D9E8D0E946C0D2F
:100A6000DC01CB018BA38BA18EAB8EA98A95F1F70C
:100A70008EAB88E390E028E330E0F90120812E7FFF
:100A8000FC01208380E090E0A0E0B0E48D879E87A9
:100A9000AF87B88B20E030E04AE753E46D857E8570
:100AA0008F8598890E94150EDC01CB01898B9A8B6A
:100AB000AB8BBC8B20E030E040E85FE369897A894A
:100AC0008B899C890E94F50C88232CF481E090E0AE
:100AD0009E8B8D8B3FC020E03FEF4FE757E4698945
:100AE0007A898B899C890E94100E18164CF520E09B
:100AF00030E040E251E46D857E858F8598890E94C3
:100B0000150EDC01CB01BC01CD010E946C0DDC0196
:100B1000CB019E8B8D8B0FC089E190E0988F8F8BDE
:100B20008F89988D0197F1F7988F8F8B8D899E898A
:100B300001979E8B8D8B8D899E89892B69F714C0B7
:100B400069897A898B899C890E946C0DDC01CB01B3
:100B50009E8B8D8B8D899E899A8F898F898D9A8D99
:100B60000197F1F79A8F898F0000C159DF4F0FB6B7
:100B7000F894DEBF0FBECDBFDF91CF911F910F91D3
:100B80000895CF93DF93CDB7DEB72E970FB6F894C5
:100B9000DEBF0FBECDBF87E390E02FEFFC012083C7
:100BA00080E090E0A0EAB1E489839A83AB83BC83C0
:100BB00020E030E04AE753E469817A818B819C81AF
:100BC0000E94150EDC01CB018D839E83AF83B88715
:100BD00020E030E040E85FE36D817E818F81988581
:100BE0000E94F50C88232CF481E090E09A87898795
:100BF0003FC020E03FEF4FE757E46D817E818F815A
:100C000098850E94100E18164CF520E030E040E266
:100C100051E469817A818B819C810E94150EDC01EF
:100C2000CB01BC01CD010E946C0DDC01CB019A8788
:100C300089870FC089E190E09C878B878B859C8595
:100C40000197F1F79C878B8789859A8501979A8709
:100C5000898789859A85892B69F714C06D817E8182
:100C60008F8198850E946C0DDC01CB019A87898762
:100C700089859A859E878D878D859E850197F1F759
:100C80009E878D8782E00E94FF0088E20E94FF001D
:100C90008CE00E94FF0086E00E94FF0081E00E943D
:100CA000FF0000002E960FB6F894DEBF0FBECDBF3A
:100CB000DF91CF910895CF93DF93CDB7DEB76C97D7
:100CC0000FB6F894DEBF0FBECDBF81E00E94FF00DB
:100CD00080E090E0A0EAB0E489839A83AB83BC8390
:100CE00020E030E04AE753E469817A818B819C817E
:100CF0000E94150EDC01CB018B8B9C8BAD8BBE8BC8
:100D000020E030E040E85FE36B897C898D899E8933
:100D10000E94F50C88232CF481E090E0988F8F8B53
:100D20003FC020E03FEF4FE757E46B897C898D8916
:100D30009E890E94100E18164CF520E030E040E22B
:100D400051E469817A818B819C810E94150EDC01BE
:100D5000CB01BC01CD010E946C0DDC01CB01988F51
:100D60008F8B0FC089E190E09A8F898F898D9A8D42
:100D70000197F1F79A8F898F8F89988D0197988FB6
:100D80008F8B8F89988D892B69F714C06B897C892B
:100D90008D899E890E946C0DDC01CB01988F8F8B11
:100DA0008F89988D9C8F8B8F8B8D9C8D0197F1F700
:100DB0009C8F8B8F80E80E94FF0080E090E0A0E88D
:100DC000BFE38D839E83AF83B88720E030E04AE79E
:100DD00053E46D817E818F8198850E94150EDC0120
:100DE000CB0189879A87AB87BC8720E030E040E859
:100DF0005FE369857A858B859C850E94F50C882345
:100E00002CF481E090E09E878D873FC020E03FEF8B
:100E10004FE757E469857A858B859C850E94100E83
:100E200018164CF520E030E040E251E46D817E81FF
:100E30008F8198850E94150EDC01CB01BC01CD018C
:100E40000E946C0DDC01CB019E878D870FC089E16C
:100E500090E0988B8F878F8598890197F1F7988B11
:100E60008F878D859E8501979E878D878D859E8531
:100E7000892B69F714C069857A858B859C850E94CA
:100E80006C0DDC01CB019E878D878D859E859A8BAD
:100E9000898B89899A890197F1F79A8B898B000050
:100EA0006C960FB6F894DEBF0FBECDBFDF91CF9129
:100EB00008950F931F93CF93DF93CDB7DEB7CF5431
:100EC000D1090FB6F894DEBF0FBECDBF9E01215BE6
:100ED0003F4FF901808388E390E028E330E0F90197
:100EE0002081422F4F709E01215B3F4FF9012081ED
:100EF000207F242BFC01208388E390E028E330E06E
:100F0000F90120812260FC01208388E390E028E33E
:100F100030E0F90120812160FC01208380E090E035
:100F2000A0E8BFE389839A83AB83BC832BEA3AEAC8
:100F30004AEA5EE369817A818B819C810E94150E69
:100F4000DC01CB018BAB9CABADABBEAB20E030E0AA
:100F500040E85EE369817A818B819C810E94150E55
:100F6000DC01CB018FAB98AFA9AFBAAF20E030E086
:100F700040E85FE36BA97CA98DA99EA90E94F50CAE
:100F800088231CF481E08BAF0CC120E03FEF4FE7DA
:100F900057E46FA978AD89AD9AAD0E94100E18166E
:100FA0000CF0C1C020E030E04AE754E469817A8166
:100FB0008B819C810E94FA0CDC01CB018CAF9DAF30
:100FC000AEAFBFAF8E01005C1F4F20E030E04AE7BC
:100FD00053E46CAD7DAD8EAD9FAD0E94150EDC016E
:100FE000CB01F80180839183A283B383CE01805C1F
:100FF0009F4F20E030E040E85FE3FC0160817181B9
:10100000828193810E94F50C88234CF4CE018C5B85
:101010009F4F21E030E0FC013183208369C0CE0185
:10102000805C9F4F20E03FEF4FE757E4FC01608179
:101030007181828193810E94100E18160CF046C0B7
:1010400020E030E040E251E46CAD7DAD8EAD9FAD6F
:101050000E94150EDC01CB018E010C5B1F4FBC0101
:10106000CD010E946C0DDC01CB01F80191838083DE
:1010700024C0CE018A5B9F4F29E130E0FC0131831F
:101080002083CE018A5B9F4FFC0180819181019773
:10109000F1F79E012A5B3F4FF90191838083CE01D6
:1010A0008C5B9F4F9E012C5B3F4FF901208131816A
:1010B00021503109FC0131832083CE018C5B9F4F8D
:1010C000FC0180819181892BA1F66BC08E010C5BA4
:1010D0001F4FCE01805C9F4FFC0160817181828136
:1010E00093810E946C0DDC01CB01F8019183808318
:1010F000CE01885B9F4F9E012C5B3F4FF901208101
:101100003181FC0131832083CE01885B9F4FFC013C
:10111000808191810197F1F79E01285B3F4FF90192
:10112000918380833EC020E030E04FE753E46BA919
:101130007CA98DA99EA90E94100E18164CF58E014F
:10114000065B1F4F6FA978AD89AD9AAD0E946C0DFB
:10115000DC01CB01F80191838083CE01845B9F4F3A
:101160009E01265B3F4FF90120813181FC013183D3
:101170002083CE01845B9F4FFC0180819181019788
:10118000F1F79E01245B3F4FF901918380831CC0DE
:101190006BA97CA98DA99EA90E946C0DDC01CB01D5
:1011A0008BAFCE01825B9F4F2BADFC012083CE0124
:1011B000825B9F4FFC018081282F2A95F1F7CE0199
:1011C000825B9F4FFC01208388E390E028E330E0BE
:1011D000F90120812E7FFC01208388E390E028E341
:1011E00030E0F9012081422F4F709E01215B3F4F7B
:1011F000F9012081222F30E022953295307F32276D
:10120000207F3227242BFC01208388E390E028E311
:1012100030E0F90120812160FC01208380E090E032
:10122000A0E8BFE38D839E83AF83B8872BEA3AEAB9
:101230004AEA5EE36D817E818F8198850E94150E5A
:10124000DC01CB018F8B988FA98FBA8F20E030E023
:1012500040E85EE36D817E818F8198850E94150E46
:10126000DC01CB018B8F9C8FAD8FBE8F20E030E0F7
:1012700040E85FE36F89788D898D9A8D0E94F50C27
:1012800088231CF481E08F8FB2C020E03FEF4FE74E
:1012900057E46B8D7C8D8D8D9E8D0E94100E1816DF
:1012A0000CF07BC020E030E04AE754E46D817E81A1
:1012B0008F8198850E94FA0CDC01CB0188A399A349
:1012C000AAA3BBA320E030E04AE753E468A179A1D8
:1012D0008AA19BA10E94150EDC01CB018CA39DA3CA
:1012E000AEA3BFA320E030E040E85FE36CA17DA1A6
:1012F0008EA19FA10E94F50C88232CF481E090E040
:1013000099A788A73FC020E03FEF4FE757E46CA1C3
:101310007DA18EA19FA10E94100E18164CF520E011
:1013200030E040E251E468A179A18AA19BA10E942A
:10133000150EDC01CB01BC01CD010E946C0DDC015E
:10134000CB0199A788A70FC089E190E09BA78AA746
:101350008AA59BA50197F1F79BA78AA788A599A5C0
:10136000019799A788A788A599A5892B69F73FC0F8
:101370006CA17DA18EA19FA10E946C0DDC01CB010F
:1013800099A788A788A599A59DA78CA78CA59DA599
:101390000197F1F79DA78CA72AC020E030E04FE726
:1013A00053E46F89788D898D9A8D0E94100E1816DE
:1013B000ACF46B8D7C8D8D8D9E8D0E946C0DDC014F
:1013C000CB019FA78EA78EA59FA599AB88AB88A9B7
:1013D00099A90197F1F799AB88AB0FC06F89788D08
:1013E000898D9A8D0E946C0DDC01CB018F8F8F8DC2
:1013F0008AAB8AA98A95F1F78AAB88E390E028E363
:1014000030E0F90120812E7FFC01208380E090E014
:10141000A0E0B0E489879A87AB87BC8720E030E002
:101420004AE753E469857A858B859C850E94150E71
:10143000DC01CB018D879E87AF87B88B20E030E041
:1014400040E85FE36D857E858F8598890E94F50C65
:1014500088232CF481E090E09A8B898B3FC020E0B8
:101460003FEF4FE757E46D857E858F8598890E9411
:10147000100E18164CF520E030E040E251E469858A
:101480007A858B859C850E94150EDC01CB01BC0101
:10149000CD010E946C0DDC01CB019A8B898B0FC0B2
:1014A00089E190E09C8B8B8B8B899C890197F1F76C
:1014B0009C8B8B8B89899A8901979A8B898B8989D7
:1014C0009A89892B69F714C06D857E858F859889E7
:1014D0000E946C0DDC01CB019A8B898B89899A89DA
:1014E0009E8B8D8B8D899E890197F1F79E8B8D8BBD
:1014F0000000C15BDF4F0FB6F894DEBF0FBECDBF5B
:10150000DF91CF911F910F910895CF93DF9300D07A
:10151000CDB7DEB79A8389830BC089819A819C01FC
:101520002F5F3F4F3A832983FC0180810E94590736
:1015300089819A81FC018081882379F700000F90CE
:101540000F90DF91CF910895CF93DF93CDB7DEB7A2
:1015500062970FB6F894DEBF0FBECDBF9A8B898B12
:1015600089899A894AE050E09E012F5F3F4FB90177
:101570000E94820ECE0101960E94850A00006296AA
:101580000FB6F894DEBF0FBECDBFDF91CF910895A7
:10159000CF93DF9300D000D0CDB7DEB78A837C83B2
:1015A0006B838A8187708A838A81882F90E0880F75
:1015B000991F880F991F880F991F80640E94FF0050
:1015C00019820EC08981882F90E02B813C81820F87
:1015D000931FFC0180810E94590789818F5F898355
:1015E0008981883078F380E80E94FF0000000F9026
:1015F0000F900F900F90DF91CF910895CF93DF93CD
:1016000000D01F92CDB7DEB78A836B838A8188238F
:1016100011F480E001C080E4898399818B81890F76
:1016200080680E94FF0000000F900F900F90DF91E4
:10163000CF910895CF93DF93CDB7DEB766970FB6FE
:10164000F894DEBF0FBECDBF9E8B8D8B8D899E899A
:10165000CC01A0E0B0E0880F991FAA1FBB1F880F24
:10166000991FAA1FBB1F880F991FAA1FBB1F2FEF0F
:1016700033E040E050E0BC01CD010E94B90CDA013A
:10168000C901898389810E94D1008D899E899C012D
:1016900040E050E084E690E0DC010E94DB0CDC01DD
:1016A000CB012FEF33E040E050E0BC01CD010E94C0
:1016B000B90CDA01C9019B838A8360E080E00E9453
:1016C000FE0A8E898F938D898F9380E690E0892F13
:1016D0008F9380E690E08F931F9281E18F93CE01EC
:1016E0000496292F2F938F930E94B20E8DB79EB729
:1016F00008960FB6F894DEBF0FBECDBFCE0104969C
:101700000E94850A60E081E00E94FE0A8B818F932F
:101710008A818F938EE690E0892F8F938EE690E0FA
:101720008F931F9281E18F93CE010496292F2F93DF
:101730008F930E94B20E8DB79EB708960FB6F8949D
:10174000DEBF0FBECDBFCE0104960E94850A000009
:1017500066960FB6F894DEBF0FBECDBFDF91CF9176
:101760000895CF93DF93CDB7DEB76E970FB6F89499
:10177000DEBF0FBECDBF0E94A4000E94C1050E9423
:10178000410060E080E00E94FE0A8DE790E00E9448
:10179000850A80E090E0A8ECB2E48F839887A9875F
:1017A000BA8720E030E04AE755E46F817885898583
:1017B0009A850E94150EDC01CB018B879C87AD8733
:1017C000BE8720E030E040E85FE36B857C858D8557
:1017D0009E850E94F50C88232CF481E090E0988B84
:1017E0008F873FC020E03FEF4FE757E46B857C8554
:1017F0008D859E850E94100E18164CF520E030E075
:1018000040E251E46F81788589859A850E94150EA2
:10181000DC01CB01BC01CD010E946C0DDC01CB01D0
:10182000988B8F870FC080E991E09A8B898B89898B
:101830009A890197F1F79A8B898B8F8598890197FF
:10184000988B8F878F859889892B69F714C06B8552
:101850007C858D859E850E946C0DDC01CB01988B6B
:101860008F878F8598899C8B8B8B8B899C8901971F
:10187000F1F79C8B8B8B0E945B0680E00E946000DE
:101880009E838D838D819E810E941A0B80E090E063
:10189000A8ECB2E489839A83AB83BC8320E030E078
:1018A0004AE755E469817A818B819C810E94150EFB
:1018B000DC01CB018D8B9E8BAF8BB88F20E030E0AD
:1018C00040E85FE36D897E898F89988D0E94F50CD1
:1018D00088232CF481E090E09A8F898F3FC020E02C
:1018E0003FEF4FE757E46D897E898F89988D0E947D
:1018F000100E18164CF520E030E040E251E469810A
:101900007A818B819C810E94150EDC01CB01BC0188
:10191000CD010E946C0DDC01CB019A8F898F0FC025
:1019200080E991E09C8F8B8F8B8D9C8D0197F1F7D7
:101930009C8F8B8F898D9A8D01979A8F898F898D36
:101940009A8D892B69F714C06D897E898F89988D4E
:101950000E946C0DDC01CB019A8F898F898D9A8D45
:101960009E8F8D8F8D8D9E8D0197F1F79E8F8D8F20
:1019700084CFA1E21A2EAA1BBB1BFD010DC0AA1F1A
:10198000BB1FEE1FFF1FA217B307E407F50720F0E8
:10199000A21BB30BE40BF50B661F771F881F991F63
:1019A0001A9469F760957095809590959B01AC01AC
:1019B000BD01CF0108950E94E60CA59F900DB49F34
:1019C000900DA49F800D911D11240895A29FB00138
:1019D000B39FC001A39F700D811D1124911DB29F63
:1019E000700D811D1124911D08950E949B0D08F416
:1019F00081E008950E940E0D0C94D60D0E94CF0D2B
:101A000058F00E94C80D40F029F45F3F29F00C9473
:101A1000BF0D51110C940A0E0C94C50D0E94E70DD8
:101A200068F39923B1F3552391F3951B550BBB270D
:101A3000AA2762177307840738F09F5F5F4F220F52
:101A4000331F441FAA1FA9F335D00E2E3AF0E0E849
:101A500032D091505040E695001CCAF72BD0FE2F93
:101A600029D0660F771F881FBB1F26173707480727
:101A7000AB07B0E809F0BB0B802DBF01FF279358DF
:101A80005F4F3AF09E3F510578F00C94BF0D0C94D7
:101A90000A0E5F3FE4F3983ED4F3869577956795F9
:101AA000B795F7959F5FC9F7880F911D9695879514
:101AB00097F90895E1E0660F771F881FBB1F621733
:101AC00073078407BA0720F0621B730B840BBA0BF1
:101AD000EE1F88F7E09508950E94EF0D88F09F575C
:101AE00098F0B92F9927B751B0F0E1F0660F771F42
:101AF000881F991F1AF0BA95C9F714C0B13091F038
:101B00000E94090EB1E008950C94090E672F782FFA
:101B10008827B85F39F0B93FCCF3869577956795FC
:101B2000B395D9F73EF490958095709561957F4F68
:101B30008F4F9F4F0895990F0008550FAA0BE0E8AB
:101B4000FEEF16161706E807F907C0F0121613067F
:101B5000E407F50798F0621B730B840B950B39F4BF
:101B60000A2661F0232B242B252B21F408950A2625
:101B700009F4A140A6958FEF811D811D089597F965
:101B80009F6780E870E060E008959FEF80EC089523
:101B900000240A941616170618060906089500244C
:101BA0000A9412161306140605060895092E0394C6
:101BB000000C11F4882352F0BB0F40F4BF2B11F43A
:101BC00060FF04C06F5F7F4F8F4F9F4F089557FD99
:101BD0009058440F551F59F05F3F71F04795880F9B
:101BE00097FB991F61F09F3F79F087950895121632
:101BF00013061406551FF2CF4695F1DF08C01616DE
:101C000017061806991FF1CF86957105610508948E
:101C10000895E894BB2766277727CB0197F90895A5
:101C20000E949B0D08F48FEF08950E94280E0C94DB
:101C3000D60D0E94C80D38F00E94CF0D20F09523DC
:101C400011F00C94BF0D0C94C50D11240C940A0EC8
:101C50000E94E70D70F3959FC1F3950F50E0551F5B
:101C6000629FF001729FBB27F00DB11D639FAA27F1
:101C7000F00DB11DAA1F649F6627B00DA11D661F40
:101C8000829F2227B00DA11D621F739FB00DA11D61
:101C9000621F839FA00D611D221F749F3327A00D1B
:101CA000611D231F849F600D211D822F762F6A2FB7
:101CB00011249F5750409AF0F1F088234AF0EE0F1C
:101CC000FF1FBB1F661F771F881F91505040A9F749
:101CD0009E3F510580F00C94BF0D0C940A0E5F3F9F
:101CE000E4F3983ED4F3869577956795B795F79585
:101CF000E7959F5FC1F7FE2B880F911D96958795FD
:101D000097F908954532510520F4423010F00C94B3
:101D10008D0EFB011082CB010895BB274A3031F4B0
:101D2000992322F4BDE2909581959F4F0C94990ED2
:101D3000BB27FB015527AA27880F991FAA1FA417A5
:101D400010F0A41B83955051B9F7A05DAA3308F099
:101D5000A95DA193009779F7B111B1931192CB01CD
:101D60000C94D910AEE0B0E0E8EBFEE00C949111D9
:101D70000D891E898F89988D26E02C831A8309830B
:101D800097FF02C080E090E801979E838D83AE01AB
:101D9000455E5F4F698D7A8DCE0101960E94E20EFD
:101DA0004D815E8157FD0AC02F8138854217530748
:101DB0000CF49A01F801E20FF31F10822E96E4E072
:101DC0000C94AD11ABE0B0E0E8EEFEE00C948311B2
:101DD0006C017B018A01FC0117821682838181FFDD
:101DE000CCC1CE0101963C01F6019381F70193FD30
:101DF000859193FF81917F01882309F4BAC18532CF
:101E000039F493FD859193FF81917F01853229F407
:101E1000B60190E00E94E910E7CF912C212C312CE3
:101E2000FFE1F315D8F08B3279F038F4803279F095
:101E30008332A1F4232D20611DC08D3261F08033E7
:101E400069F4232D216016C0832D8260382EE32D86
:101E5000E4603E2E2AC0F32DF8601DC037FC2DC073
:101E600020ED280F2A3040F08E32B9F436FC81C1C3
:101E7000232D2064322E19C036FE06C08AE0989EBB
:101E8000200D1124922E11C0EAE02E9E200D112467
:101E9000222EF32DF0623F2E08C08C3621F4832DC4
:101EA0008068382E02C0883641F4F70193FD859191
:101EB00093FF81917F018111B3CF982F9F7D95541E
:101EC000933028F40C5F1F4F9FE399830DC0833636
:101ED00031F0833771F0833509F059C021C0F80122
:101EE000808189830E5F1F4F88248394912C530136
:101EF00013C02801F2E04F0E511CF801A080B18000
:101F000036FE03C0692D70E002C06FEF7FEFC501A0
:101F10000E94CE104C018201F32DFF773F2E16C098
:101F2000280122E0420E511CF801A080B18036FE4B
:101F300003C0692D70E002C06FEF7FEFC5010E9402
:101F4000C3104C01F32DF0683F2E820133FC1BC0FF
:101F5000822D90E088169906B0F4B60180E290E0F8
:101F60000E94E9102A94F4CFF50137FC859137FEE1
:101F700081915F01B60190E00E94E91021102A943E
:101F800021E0821A91088114910471F7E8C0843627
:101F900011F0893641F5F80137FE07C06081718183
:101FA000828193810C5F1F4F08C060817181072E71
:101FB000000C880B990B0E5F1F4FF32DFF763F2E01
:101FC00097FF09C090958095709561957F4F8F4FD1
:101FD0009F4FF0683F2E2AE030E0A3010E942511B8
:101FE000882E861845C0853731F4232D2F7EB22EDA
:101FF0002AE030E025C0932D997FB92E8F36C1F0AD
:1020000018F4883579F0B5C0803719F0883721F099
:10201000B0C0E92FE061BE2EB4FE0DC0FB2DF46010
:10202000BF2E09C034FE0AC0292F2660B22E06C07A
:1020300028E030E005C020E130E002C020E132E0DD
:10204000F801B7FE07C060817181828193810C5FC6
:102050001F4F06C06081718180E090E00E5F1F4FCE
:10206000A3010E942511882E8618FB2DFF773F2E95
:1020700036FE0DC0232D2E7FA22E891458F434FE77
:102080000BC032FC09C0832D8E7EA82E05C0B82C53
:10209000A32C03C0B82C01C0B92CA4FE0FC0FE01B4
:1020A000E80DF11D8081803321F49A2D997EA92EAF
:1020B00009C0A2FE06C0B394B39404C08A2D8678EA
:1020C00009F0B394A3FC11C0A0FE06C0B21488F4BA
:1020D000280C922C9B180EC0B21460F4B60180E25A
:1020E00090E00E94E910B394F7CFB21418F42B18C3
:1020F00002C0982C212CA4FE10C0B60180E390E011
:102100000E94E910A2FE17C0A1FC03C088E790E07E
:1021100002C088E590E0B6010CC08A2D867859F09F
:10212000A1FE02C08BE201C080E2A7FC8DE2B601F5
:1021300090E00E94E910891438F4B60180E390E041
:102140000E94E9109A94F7CF8A94F301E80DF11DEB
:102150008081B60190E00E94E9108110F5CF222025
:1021600009F442CEB60180E290E00E94E9102A9480
:10217000F6CFF6018681978102C08FEF9FEF2B96F5
:10218000E2E10C949F11FC01059061507040011038
:10219000D8F7809590958E0F9F1F0895FC01615090
:1021A000704001900110D8F7809590958E0F9F1F79
:1021B0000895DC01FC01672F71917723E1F73297D5
:1021C00004C07C916D9370836291AE17BF07C8F312
:1021D00008950F931F93CF93DF93FB01238121FD7C
:1021E00003C08FEF9FEF2CC022FF16C0468157819E
:1021F000248135814217530744F4A081B1819D01A8
:102200002F5F3F4F318320838C93268137812F5F4F
:102210003F4F3783268314C08B01EC01FB01008400
:10222000F185E02D0995892BE1F6D80116968D915F
:102230009C911797019617969C938E931697CE01B3
:10224000DF91CF911F910F910895FA01AA272830AD
:1022500051F1203181F1E8946F936E7F6E5F7F4F73
:102260008F4F9F4FAF4FB1E03ED0B4E03CD0670FEF
:10227000781F891F9A1FA11D680F791F8A1F911D42
:10228000A11D6A0F711D811D911DA11D20D009F492
:1022900068943F912AE0269F11243019305D3193D4
:1022A000DEF6CF010895462F4770405D4193B3E0BD
:1022B0000FD0C9F7F6CF462F4F70405D4A3318F064
:1022C000495D31FD4052419302D0A9F7EACFB4E015
:1022D000A6959795879577956795BA95C9F70097CD
:1022E0006105710508959B01AC010A2E069457956E
:1022F000479537952795BA95C9F7620F731F841FC5
:10230000951FA01D08952F923F924F925F926F925A
:102310007F928F929F92AF92BF92CF92DF92EF9275
:10232000FF920F931F93CF93DF93CDB7DEB7CA1BF6
:10233000DB0B0FB6F894DEBF0FBECDBF09942A8821
:10234000398848885F846E847D848C849B84AA84C9
:10235000B984C884DF80EE80FD800C811B81AA8156
:10236000B981CE0FD11D0FB6F894DEBF0FBECDBF21
:08237000ED010895F894FFCF80
:102378004144433A25347520202020202000506312
:10238800743A2533752525202020202000416E61D0
:0C2398006C6F6720746F204C454473008C
:00000001FF
